{
  "_format": "hh-sol-artifact-1",
  "contractName": "PrivateSale",
  "sourceName": "contracts/PrivateSale.sol",
  "abi": [
    {
      "anonymous": false,
      "inputs": [
        {
          "indexed": false,
          "internalType": "address",
          "name": "buyer",
          "type": "address"
        },
        {
          "indexed": false,
          "internalType": "uint256",
          "name": "tokenAmount",
          "type": "uint256"
        }
      ],
      "name": "Bought",
      "type": "event"
    },
    {
      "anonymous": false,
      "inputs": [
        {
          "indexed": false,
          "internalType": "uint8",
          "name": "version",
          "type": "uint8"
        }
      ],
      "name": "Initialized",
      "type": "event"
    },
    {
      "anonymous": false,
      "inputs": [
        {
          "indexed": true,
          "internalType": "address",
          "name": "previousOwner",
          "type": "address"
        },
        {
          "indexed": true,
          "internalType": "address",
          "name": "newOwner",
          "type": "address"
        }
      ],
      "name": "OwnershipTransferred",
      "type": "event"
    },
    {
      "anonymous": false,
      "inputs": [
        {
          "indexed": false,
          "internalType": "address",
          "name": "",
          "type": "address"
        },
        {
          "indexed": false,
          "internalType": "uint256",
          "name": "",
          "type": "uint256"
        }
      ],
      "name": "Received",
      "type": "event"
    },
    {
      "inputs": [],
      "name": "BUSD",
      "outputs": [
        {
          "internalType": "contract IERC20",
          "name": "",
          "type": "address"
        }
      ],
      "stateMutability": "view",
      "type": "function"
    },
    {
      "inputs": [
        {
          "internalType": "address",
          "name": "",
          "type": "address"
        }
      ],
      "name": "addressToUserData",
      "outputs": [
        {
          "internalType": "uint256",
          "name": "totalBUSDAmountContributed",
          "type": "uint256"
        },
        {
          "internalType": "uint256",
          "name": "tokenAmountReceived",
          "type": "uint256"
        },
        {
          "internalType": "uint256",
          "name": "totalRewardAmount",
          "type": "uint256"
        },
        {
          "internalType": "uint256",
          "name": "rewardAmountReceived",
          "type": "uint256"
        }
      ],
      "stateMutability": "view",
      "type": "function"
    },
    {
      "inputs": [
        {
          "internalType": "uint256",
          "name": "busdAmount",
          "type": "uint256"
        },
        {
          "internalType": "address",
          "name": "referAddress",
          "type": "address"
        }
      ],
      "name": "buyToken",
      "outputs": [],
      "stateMutability": "nonpayable",
      "type": "function"
    },
    {
      "inputs": [],
      "name": "canClaimReward",
      "outputs": [
        {
          "internalType": "bool",
          "name": "",
          "type": "bool"
        }
      ],
      "stateMutability": "view",
      "type": "function"
    },
    {
      "inputs": [],
      "name": "canClaimToken",
      "outputs": [
        {
          "internalType": "bool",
          "name": "",
          "type": "bool"
        }
      ],
      "stateMutability": "view",
      "type": "function"
    },
    {
      "inputs": [],
      "name": "claimEnabled",
      "outputs": [
        {
          "internalType": "bool",
          "name": "",
          "type": "bool"
        }
      ],
      "stateMutability": "view",
      "type": "function"
    },
    {
      "inputs": [],
      "name": "claimReward",
      "outputs": [],
      "stateMutability": "nonpayable",
      "type": "function"
    },
    {
      "inputs": [],
      "name": "claimToken",
      "outputs": [],
      "stateMutability": "nonpayable",
      "type": "function"
    },
    {
      "inputs": [],
      "name": "enabled",
      "outputs": [
        {
          "internalType": "bool",
          "name": "",
          "type": "bool"
        }
      ],
      "stateMutability": "view",
      "type": "function"
    },
    {
      "inputs": [],
      "name": "getBUSDBalanceOfContract",
      "outputs": [
        {
          "internalType": "uint256",
          "name": "",
          "type": "uint256"
        }
      ],
      "stateMutability": "view",
      "type": "function"
    },
    {
      "inputs": [],
      "name": "getTokenBalanceOfContract",
      "outputs": [
        {
          "internalType": "uint256",
          "name": "",
          "type": "uint256"
        }
      ],
      "stateMutability": "view",
      "type": "function"
    },
    {
      "inputs": [
        {
          "internalType": "contract IERC20",
          "name": "_token",
          "type": "address"
        }
      ],
      "name": "initialize",
      "outputs": [],
      "stateMutability": "nonpayable",
      "type": "function"
    },
    {
      "inputs": [],
      "name": "instantRelease",
      "outputs": [
        {
          "internalType": "uint256",
          "name": "",
          "type": "uint256"
        }
      ],
      "stateMutability": "view",
      "type": "function"
    },
    {
      "inputs": [],
      "name": "maxBUSDBoughtPerWallet",
      "outputs": [
        {
          "internalType": "uint256",
          "name": "",
          "type": "uint256"
        }
      ],
      "stateMutability": "view",
      "type": "function"
    },
    {
      "inputs": [],
      "name": "maxHoldingTime",
      "outputs": [
        {
          "internalType": "uint256",
          "name": "",
          "type": "uint256"
        }
      ],
      "stateMutability": "view",
      "type": "function"
    },
    {
      "inputs": [],
      "name": "maxRaisedBUSD",
      "outputs": [
        {
          "internalType": "uint256",
          "name": "",
          "type": "uint256"
        }
      ],
      "stateMutability": "view",
      "type": "function"
    },
    {
      "inputs": [],
      "name": "minBUSDBoughtPerWallet",
      "outputs": [
        {
          "internalType": "uint256",
          "name": "",
          "type": "uint256"
        }
      ],
      "stateMutability": "view",
      "type": "function"
    },
    {
      "inputs": [],
      "name": "owner",
      "outputs": [
        {
          "internalType": "address",
          "name": "",
          "type": "address"
        }
      ],
      "stateMutability": "view",
      "type": "function"
    },
    {
      "inputs": [],
      "name": "privateSalePrice",
      "outputs": [
        {
          "internalType": "uint256",
          "name": "",
          "type": "uint256"
        }
      ],
      "stateMutability": "view",
      "type": "function"
    },
    {
      "inputs": [],
      "name": "referralBonusPercent",
      "outputs": [
        {
          "internalType": "uint256",
          "name": "",
          "type": "uint256"
        }
      ],
      "stateMutability": "view",
      "type": "function"
    },
    {
      "inputs": [],
      "name": "releaseTokenTotalPercent",
      "outputs": [
        {
          "internalType": "uint256",
          "name": "",
          "type": "uint256"
        }
      ],
      "stateMutability": "view",
      "type": "function"
    },
    {
      "inputs": [],
      "name": "renounceOwnership",
      "outputs": [],
      "stateMutability": "nonpayable",
      "type": "function"
    },
    {
      "inputs": [
        {
          "internalType": "contract IERC20",
          "name": "_busd",
          "type": "address"
        }
      ],
      "name": "setBUSDAddress",
      "outputs": [],
      "stateMutability": "nonpayable",
      "type": "function"
    },
    {
      "inputs": [
        {
          "internalType": "bool",
          "name": "_claimEnabled",
          "type": "bool"
        }
      ],
      "name": "setClaimEnabled",
      "outputs": [],
      "stateMutability": "nonpayable",
      "type": "function"
    },
    {
      "inputs": [
        {
          "internalType": "bool",
          "name": "_enabled",
          "type": "bool"
        }
      ],
      "name": "setEnabled",
      "outputs": [],
      "stateMutability": "nonpayable",
      "type": "function"
    },
    {
      "inputs": [
        {
          "internalType": "uint256",
          "name": "_miniPercent",
          "type": "uint256"
        }
      ],
      "name": "setInstantReleaseWithPercent",
      "outputs": [],
      "stateMutability": "nonpayable",
      "type": "function"
    },
    {
      "inputs": [
        {
          "internalType": "uint256",
          "name": "_maxBUSD",
          "type": "uint256"
        }
      ],
      "name": "setMaxBUSDBoughtPerWallet",
      "outputs": [],
      "stateMutability": "nonpayable",
      "type": "function"
    },
    {
      "inputs": [
        {
          "internalType": "uint256",
          "name": "_holdingTime",
          "type": "uint256"
        }
      ],
      "name": "setMaxHoldingTime",
      "outputs": [],
      "stateMutability": "nonpayable",
      "type": "function"
    },
    {
      "inputs": [
        {
          "internalType": "uint256",
          "name": "_maxRaisedBUSD",
          "type": "uint256"
        }
      ],
      "name": "setMaxRaisedBUSD",
      "outputs": [],
      "stateMutability": "nonpayable",
      "type": "function"
    },
    {
      "inputs": [
        {
          "internalType": "uint256",
          "name": "_minBUSD",
          "type": "uint256"
        }
      ],
      "name": "setMinBUSDBoughtPerWallet",
      "outputs": [],
      "stateMutability": "nonpayable",
      "type": "function"
    },
    {
      "inputs": [
        {
          "internalType": "uint256",
          "name": "_privateSalePrice",
          "type": "uint256"
        }
      ],
      "name": "setPrivateSalePrice",
      "outputs": [],
      "stateMutability": "nonpayable",
      "type": "function"
    },
    {
      "inputs": [
        {
          "internalType": "uint256",
          "name": "_referralBonusPercent",
          "type": "uint256"
        }
      ],
      "name": "setReferralBonusPercent",
      "outputs": [],
      "stateMutability": "nonpayable",
      "type": "function"
    },
    {
      "inputs": [
        {
          "internalType": "uint256",
          "name": "date",
          "type": "uint256"
        }
      ],
      "name": "setStartReleaseTime",
      "outputs": [],
      "stateMutability": "nonpayable",
      "type": "function"
    },
    {
      "inputs": [
        {
          "internalType": "contract IERC20",
          "name": "_token",
          "type": "address"
        }
      ],
      "name": "setToken",
      "outputs": [],
      "stateMutability": "nonpayable",
      "type": "function"
    },
    {
      "inputs": [],
      "name": "startReleaseTime",
      "outputs": [
        {
          "internalType": "uint256",
          "name": "",
          "type": "uint256"
        }
      ],
      "stateMutability": "view",
      "type": "function"
    },
    {
      "inputs": [],
      "name": "token",
      "outputs": [
        {
          "internalType": "contract IERC20",
          "name": "",
          "type": "address"
        }
      ],
      "stateMutability": "view",
      "type": "function"
    },
    {
      "inputs": [],
      "name": "totalRewardTracking",
      "outputs": [
        {
          "internalType": "uint256",
          "name": "",
          "type": "uint256"
        }
      ],
      "stateMutability": "view",
      "type": "function"
    },
    {
      "inputs": [
        {
          "internalType": "address",
          "name": "_recipient",
          "type": "address"
        },
        {
          "internalType": "uint256",
          "name": "_amount",
          "type": "uint256"
        }
      ],
      "name": "transferBUSD",
      "outputs": [
        {
          "internalType": "bool",
          "name": "",
          "type": "bool"
        }
      ],
      "stateMutability": "nonpayable",
      "type": "function"
    },
    {
      "inputs": [
        {
          "internalType": "address",
          "name": "newOwner",
          "type": "address"
        }
      ],
      "name": "transferOwnership",
      "outputs": [],
      "stateMutability": "nonpayable",
      "type": "function"
    },
    {
      "inputs": [
        {
          "internalType": "address",
          "name": "_recipient",
          "type": "address"
        },
        {
          "internalType": "uint256",
          "name": "_amount",
          "type": "uint256"
        }
      ],
      "name": "transferToken",
      "outputs": [
        {
          "internalType": "bool",
          "name": "",
          "type": "bool"
        }
      ],
      "stateMutability": "nonpayable",
      "type": "function"
    },
    {
      "inputs": [
        {
          "internalType": "uint256",
          "name": "",
          "type": "uint256"
        }
      ],
      "name": "users",
      "outputs": [
        {
          "internalType": "address",
          "name": "",
          "type": "address"
        }
      ],
      "stateMutability": "view",
      "type": "function"
    }
  ],
  "bytecode": "0x608060405234801561001057600080fd5b506117c6806100206000396000f3fe608060405234801561001057600080fd5b50600436106102535760003560e01c80638da5cb5b11610146578063c94f4c1d116100c3578063e9715de911610087578063e9715de9146104d7578063f0f8857c146104e0578063f2fde38b146104f3578063f560d41514610506578063fabe14161461050f578063fc0c546a1461051757600080fd5b8063c94f4c1d14610498578063cb22ba57146104a0578063cf5fc9c6146104b3578063d4c4b817146104bb578063e0a2cd08146104ce57600080fd5b8063985053be1161010a578063985053be14610458578063b88a802f14610461578063bbfa279514610469578063c4d66de81461047c578063c90517e61461048f57600080fd5b80638da5cb5b1461040f5780639134709e1461042057806392929a09146104335780639308a7b7146104465780639481c9821461044f57600080fd5b80634451d89f116101d45780636fcf06f1116101985780636fcf06f1146103da5780637018137b146103e3578063715018a6146103ec57806372a1e440146103f45780637bc36e04146103fc57600080fd5b80634451d89f14610382578063484f4ea91461038a57806360ccbb5d1461039d578063630498e6146103b45780636991d438146103c757600080fd5b8063328d8f721161021b578063328d8f72146102c9578063365b98b2146102dc57806337aff689146103075780633c0d79871461035c57806341f345ef1461036f57600080fd5b806303582fc5146102585780631072cbea1461026d578063144fa6d714610295578063238dafe0146102a85780632866ed21146102bc575b600080fd5b61026b6102663660046115b7565b61052a565b005b61028061027b3660046115e5565b610537565b60405190151581526020015b60405180910390f35b61026b6102a3366004611611565b6105cf565b60665461028090600160a01b900460ff1681565b6069546102809060ff1681565b61026b6102d736600461163c565b6105f9565b6102ef6102ea3660046115b7565b61061f565b6040516001600160a01b03909116815260200161028c565b61033c610315366004611611565b606c6020526000908152604090208054600182015460028301546003909301549192909184565b60408051948552602085019390935291830152606082015260800161028c565b61026b61036a3660046115b7565b610649565b61026b61037d3660046115b7565b610656565b61026b610663565b6066546102ef906001600160a01b031681565b6103a660685481565b60405190815260200161028c565b61026b6103c23660046115b7565b610953565b6102806103d53660046115e5565b610960565b6103a660735481565b6103a6606f5481565b61026b6109a3565b6102806109b7565b61026b61040a3660046115b7565b610a50565b6033546001600160a01b03166102ef565b61026b61042e366004611659565b610a5d565b61026b61044136600461163c565b610e6e565b6103a660725481565b6103a660705481565b6103a6606b5481565b61026b610e89565b61026b610477366004611611565b611061565b61026b61048a366004611611565b61108b565b6103a660715481565b6103a661124c565b61026b6104ae3660046115b7565b6112ce565b6103a66112db565b61026b6104c93660046115b7565b61130c565b6103a6606a5481565b6103a6606e5481565b61026b6104ee3660046115b7565b61138b565b61026b610501366004611611565b611398565b6103a660675481565b610280611411565b6065546102ef906001600160a01b031681565b610532611481565b606e55565b6000610541611481565b60655460405163a9059cbb60e01b81526001600160a01b038581166004830152602482018590529091169063a9059cbb906044015b602060405180830381600087803b15801561059057600080fd5b505af11580156105a4573d6000803e3d6000fd5b505050506040513d601f19601f820116820180604052508101906105c89190611689565b9392505050565b6105d7611481565b606580546001600160a01b0319166001600160a01b0392909216919091179055565b610601611481565b60668054911515600160a01b0260ff60a01b19909216919091179055565b606d818154811061062f57600080fd5b6000918252602090912001546001600160a01b0316905081565b610651611481565b607255565b61065e611481565b606855565b60695460ff166106ba5760405162461bcd60e51b815260206004820152601c60248201527f5072697661746553616c65206973206e6f7420636c61696d61626c650000000060448201526064015b60405180910390fd5b6071544290811015806106e957506073546072546106d891906116bc565b81101580156106e957506073548110155b61072b5760405162461bcd60e51b815260206004820152601360248201527252656c65617365206e6f74207965742064756560681b60448201526064016106b1565b6065546001600160a01b03166107795760405162461bcd60e51b8152602060048201526013602482015272546f6b656e20646f206e6f742075706461746560681b60448201526064016106b1565b606754607054336000908152606c6020526040812054670de0b6b3a76400009391926107c292620186a0926107bc92839188916107b691906114db565b906114db565b906114e7565b90506073546072546107d491906116bc565b83106107ff57606754336000908152606c60205260409020546107fc91906107bc90856114db565b90505b336000908152606c60205260409020600101548110156108565760405162461bcd60e51b815260206004820152601260248201527143616e206e6f7420636c61696d206d6f726560701b60448201526064016106b1565b336000908152606c60205260408120600101546108749083906114f3565b336000818152606c602052604090819020600101859055606554905163a9059cbb60e01b81526004810192909252602482018390529192506001600160a01b039091169063a9059cbb90604401602060405180830381600087803b1580156108db57600080fd5b505af11580156108ef573d6000803e3d6000fd5b505050506040513d601f19601f820116820180604052508101906109139190611689565b5060408051338152602081018390527f88a5966d370b9919b20f3e2c13ff65706f196a4e32cc2c12bf57088f88525874910160405180910390a150505050565b61095b611481565b606b55565b600061096a611481565b60665460405163a9059cbb60e01b81526001600160a01b038581166004830152602482018590529091169063a9059cbb90604401610576565b6109ab611481565b6109b560006114ff565b565b336000908152606c6020526040812060038101546002909101541015610a145760405162461bcd60e51b815260206004820152601260248201527143616e206e6f7420636c61696d206d6f726560701b60448201526064016106b1565b336000908152606c602052604081206003810154600290910154610a3891906116d4565b90508015610a4857600191505090565b600091505090565b610a58611481565b606755565b606654600160a01b900460ff16610ab65760405162461bcd60e51b815260206004820152601760248201527f5072697661746553616c652069732064697361626c656400000000000000000060448201526064016106b1565b607354421015610b085760405162461bcd60e51b815260206004820152601e60248201527f5072697661746553616c6520646f6573206e6f74206f70656e2073616c65000060448201526064016106b1565b606a54821015610b6e5760405162461bcd60e51b815260206004820152602b60248201527f596f752063616e206e6f7420627579206c657373207468616e20746865204d6960448201526a1b881d1a1c995cda1bdb1960aa1b60648201526084016106b1565b606b54821115610bd45760405162461bcd60e51b815260206004820152602b60248201527f596f752063616e206e6f7420627579206d6f7265207468616e20746865204d6160448201526a1e081d1a1c995cda1bdb1960aa1b60648201526084016106b1565b6068546066546040516370a0823160e01b8152306004820152610c5e9185916001600160a01b03909116906370a082319060240160206040518083038186803b158015610c2057600080fd5b505afa158015610c34573d6000803e3d6000fd5b505050506040513d601f19601f82011682018060405250810190610c5891906116eb565b90611551565b1115610cac5760405162461bcd60e51b815260206004820152601f60248201527f4d617820726169736564204255534420616d6f756e742065786365656465640060448201526064016106b1565b6066546040516323b872dd60e01b8152336004820152306024820152604481018490526001600160a01b03909116906323b872dd90606401602060405180830381600087803b158015610cfe57600080fd5b505af1158015610d12573d6000803e3d6000fd5b505050506040513d601f19601f82011682018060405250810190610d369190611689565b610d825760405162461bcd60e51b815260206004820152601860248201527f4661696c757265204f6e2042555344205472616e73666572000000000000000060448201526064016106b1565b336000908152606c6020526040902054610d9c9083611551565b336000908152606c60205260409020556001600160a01b03811615610e30576000610dd9620186a06107bc606e54866114db90919063ffffffff16565b6001600160a01b0383166000908152606c6020526040902060020154909150610e029082611551565b6001600160a01b0383166000908152606c6020526040902060020155606f54610e2b9082611551565b606f55505b60408051338152602081018490527fc55650ccda1011e1cdc769b1fbf546ebb8c97800b6072b49e06cd560305b1d6791015b60405180910390a15050565b610e76611481565b6069805460ff1916911515919091179055565b336000908152606c602052604081206003810154600290910154610ead91906116d4565b336000908152606c602052604090206002810154600390910155905080610f025760405162461bcd60e51b8152602060048201526009602482015268139bc81c995dd85c9960ba1b60448201526064016106b1565b336000908152606c602052604090205480610f7d5760405162461bcd60e51b815260206004820152603560248201527f596f75206e65656420746f2062757920707269766174652073616c6520746f2060448201527418994818589b19481d1bc819d95d081c995dd85c99605a1b60648201526084016106b1565b60665460405163a9059cbb60e01b8152336004820152602481018490526001600160a01b039091169063a9059cbb90604401602060405180830381600087803b158015610fc957600080fd5b505af1158015610fdd573d6000803e3d6000fd5b505050506040513d601f19601f820116820180604052508101906110019190611689565b61104d5760405162461bcd60e51b815260206004820152601b60248201527f5472616e73666572206275736420746f207265666572206661696c000000000060448201526064016106b1565b606f5461105a90836114f3565b606f555050565b611069611481565b606680546001600160a01b0319166001600160a01b0392909216919091179055565b600054610100900460ff16158080156110ab5750600054600160ff909116105b806110c55750303b1580156110c5575060005460ff166001145b6111285760405162461bcd60e51b815260206004820152602e60248201527f496e697469616c697a61626c653a20636f6e747261637420697320616c72656160448201526d191e481a5b9a5d1a585b1a5e995960921b60648201526084016106b1565b6000805460ff19166001179055801561114b576000805461ff0019166101001790555b606580546001600160a01b0319166001600160a01b0384161790556066805460ff60a01b1916905565b5e620f480006067556069805460ff1916905569152d02c7e14af680000060685568056bc75e2d63100000606a5569021e19e0c9bab2400000606b55614e20606e556301e1338060728190554260738190556111d091906116bc565b6071556000607055606680546001600160a01b03191673ed24fc36d5ee211ea25a80239fb8c4cfd80f12ee17905561120661155d565b8015611248576000805461ff0019169055604051600181527f7f26b83ff96e1f2b6a682f133852f6798a09c465da95921460cefb384740249890602001610e62565b5050565b6065546040516370a0823160e01b81523060048201526000916001600160a01b0316906370a08231906024015b60206040518083038186803b15801561129157600080fd5b505afa1580156112a5573d6000803e3d6000fd5b505050506040513d601f19601f820116820180604052508101906112c991906116eb565b905090565b6112d6611481565b606a55565b6066546040516370a0823160e01b81523060048201526000916001600160a01b0316906370a0823190602401611279565b611314611481565b42607155607054620186a09061132a9083611551565b11156113785760405162461bcd60e51b815260206004820152601c60248201527f546f74616c2070657263656e74207468616e206d6f726520313030250000000060448201526064016106b1565b6070546113859082611551565b60705550565b611393611481565b607355565b6113a0611481565b6001600160a01b0381166114055760405162461bcd60e51b815260206004820152602660248201527f4f776e61626c653a206e6577206f776e657220697320746865207a65726f206160448201526564647265737360d01b60648201526084016106b1565b61140e816114ff565b50565b606754607054336000908152606c60205260408120549092670de0b6b3a764000092849261144f92916107bc91620186a09183916107b690896114db565b336000908152606c602052604090206001015490915080821415611477576000935050505090565b6001935050505090565b6033546001600160a01b031633146109b55760405162461bcd60e51b815260206004820181905260248201527f4f776e61626c653a2063616c6c6572206973206e6f7420746865206f776e657260448201526064016106b1565b60006105c88284611704565b60006105c88284611723565b60006105c882846116d4565b603380546001600160a01b038381166001600160a01b0319831681179093556040519116919082907f8be0079c531659141344cd1fd0a4f28419497f9722a3daafe3b4186f6b6457e090600090a35050565b60006105c882846116bc565b600054610100900460ff166115845760405162461bcd60e51b81526004016106b190611745565b6109b5600054610100900460ff166115ae5760405162461bcd60e51b81526004016106b190611745565b6109b5336114ff565b6000602082840312156115c957600080fd5b5035919050565b6001600160a01b038116811461140e57600080fd5b600080604083850312156115f857600080fd5b8235611603816115d0565b946020939093013593505050565b60006020828403121561162357600080fd5b81356105c8816115d0565b801515811461140e57600080fd5b60006020828403121561164e57600080fd5b81356105c88161162e565b6000806040838503121561166c57600080fd5b82359150602083013561167e816115d0565b809150509250929050565b60006020828403121561169b57600080fd5b81516105c88161162e565b634e487b7160e01b600052601160045260246000fd5b600082198211156116cf576116cf6116a6565b500190565b6000828210156116e6576116e66116a6565b500390565b6000602082840312156116fd57600080fd5b5051919050565b600081600019048311821515161561171e5761171e6116a6565b500290565b60008261174057634e487b7160e01b600052601260045260246000fd5b500490565b6020808252602b908201527f496e697469616c697a61626c653a20636f6e7472616374206973206e6f74206960408201526a6e697469616c697a696e6760a81b60608201526080019056fea2646970667358221220cfba157eabe20122ed248a06e6a779e77bef4a7b369f760d72d1ca37cbeb1ad264736f6c63430008090033",
  "linkReferences": {},
  "deployedLinkReferences": {}
}