{
  "_format": "hh-sol-artifact-1",
  "contractName": "PrivateSale",
  "sourceName": "contracts/PrivateSale.sol",
  "abi": [
    {
      "anonymous": false,
      "inputs": [
        {
          "indexed": false,
          "internalType": "address",
          "name": "buyer",
          "type": "address"
        },
        {
          "indexed": false,
          "internalType": "uint256",
          "name": "tokenAmount",
          "type": "uint256"
        }
      ],
      "name": "Bought",
      "type": "event"
    },
    {
      "anonymous": false,
      "inputs": [
        {
          "indexed": false,
          "internalType": "uint8",
          "name": "version",
          "type": "uint8"
        }
      ],
      "name": "Initialized",
      "type": "event"
    },
    {
      "anonymous": false,
      "inputs": [
        {
          "indexed": true,
          "internalType": "address",
          "name": "previousOwner",
          "type": "address"
        },
        {
          "indexed": true,
          "internalType": "address",
          "name": "newOwner",
          "type": "address"
        }
      ],
      "name": "OwnershipTransferred",
      "type": "event"
    },
    {
      "anonymous": false,
      "inputs": [
        {
          "indexed": false,
          "internalType": "address",
          "name": "",
          "type": "address"
        },
        {
          "indexed": false,
          "internalType": "uint256",
          "name": "",
          "type": "uint256"
        }
      ],
      "name": "Received",
      "type": "event"
    },
    {
      "inputs": [],
      "name": "BUSD",
      "outputs": [
        {
          "internalType": "contract IERC20",
          "name": "",
          "type": "address"
        }
      ],
      "stateMutability": "view",
      "type": "function"
    },
    {
      "inputs": [
        {
          "internalType": "address",
          "name": "",
          "type": "address"
        }
      ],
      "name": "addressToUserData",
      "outputs": [
        {
          "internalType": "uint256",
          "name": "totalTokenAmount",
          "type": "uint256"
        },
        {
          "internalType": "uint256",
          "name": "tokenAmountReceived",
          "type": "uint256"
        },
        {
          "internalType": "uint256",
          "name": "referralRewardAmount",
          "type": "uint256"
        }
      ],
      "stateMutability": "view",
      "type": "function"
    },
    {
      "inputs": [
        {
          "internalType": "uint256",
          "name": "amount",
          "type": "uint256"
        },
        {
          "internalType": "address",
          "name": "referAddress",
          "type": "address"
        }
      ],
      "name": "buyToken",
      "outputs": [],
      "stateMutability": "nonpayable",
      "type": "function"
    },
    {
      "inputs": [],
      "name": "claimEnabled",
      "outputs": [
        {
          "internalType": "bool",
          "name": "",
          "type": "bool"
        }
      ],
      "stateMutability": "view",
      "type": "function"
    },
    {
      "inputs": [],
      "name": "claimReward",
      "outputs": [],
      "stateMutability": "nonpayable",
      "type": "function"
    },
    {
      "inputs": [],
      "name": "claimToken",
      "outputs": [],
      "stateMutability": "nonpayable",
      "type": "function"
    },
    {
      "inputs": [],
      "name": "enabled",
      "outputs": [
        {
          "internalType": "bool",
          "name": "",
          "type": "bool"
        }
      ],
      "stateMutability": "view",
      "type": "function"
    },
    {
      "inputs": [],
      "name": "getBUSDBalance",
      "outputs": [
        {
          "internalType": "uint256",
          "name": "",
          "type": "uint256"
        }
      ],
      "stateMutability": "view",
      "type": "function"
    },
    {
      "inputs": [],
      "name": "getRewardBalance",
      "outputs": [
        {
          "internalType": "uint256",
          "name": "",
          "type": "uint256"
        }
      ],
      "stateMutability": "view",
      "type": "function"
    },
    {
      "inputs": [],
      "name": "getTokenBalance",
      "outputs": [
        {
          "internalType": "uint256",
          "name": "",
          "type": "uint256"
        }
      ],
      "stateMutability": "view",
      "type": "function"
    },
    {
      "inputs": [
        {
          "internalType": "contract IERC20",
          "name": "_token",
          "type": "address"
        }
      ],
      "name": "initialize",
      "outputs": [],
      "stateMutability": "nonpayable",
      "type": "function"
    },
    {
      "inputs": [],
      "name": "instantRelease",
      "outputs": [
        {
          "internalType": "uint256",
          "name": "",
          "type": "uint256"
        }
      ],
      "stateMutability": "view",
      "type": "function"
    },
    {
      "inputs": [],
      "name": "maxHoldingTime",
      "outputs": [
        {
          "internalType": "uint256",
          "name": "",
          "type": "uint256"
        }
      ],
      "stateMutability": "view",
      "type": "function"
    },
    {
      "inputs": [],
      "name": "maxRaisedBUSD",
      "outputs": [
        {
          "internalType": "uint256",
          "name": "",
          "type": "uint256"
        }
      ],
      "stateMutability": "view",
      "type": "function"
    },
    {
      "inputs": [],
      "name": "minBUSDBoughtPerWallet",
      "outputs": [
        {
          "internalType": "uint256",
          "name": "",
          "type": "uint256"
        }
      ],
      "stateMutability": "view",
      "type": "function"
    },
    {
      "inputs": [],
      "name": "owner",
      "outputs": [
        {
          "internalType": "address",
          "name": "",
          "type": "address"
        }
      ],
      "stateMutability": "view",
      "type": "function"
    },
    {
      "inputs": [],
      "name": "privateSalePrice",
      "outputs": [
        {
          "internalType": "uint256",
          "name": "",
          "type": "uint256"
        }
      ],
      "stateMutability": "view",
      "type": "function"
    },
    {
      "inputs": [],
      "name": "referralBonusPercent",
      "outputs": [
        {
          "internalType": "uint256",
          "name": "",
          "type": "uint256"
        }
      ],
      "stateMutability": "view",
      "type": "function"
    },
    {
      "inputs": [],
      "name": "releaseTokenTotalPercent",
      "outputs": [
        {
          "internalType": "uint256",
          "name": "",
          "type": "uint256"
        }
      ],
      "stateMutability": "view",
      "type": "function"
    },
    {
      "inputs": [],
      "name": "renounceOwnership",
      "outputs": [],
      "stateMutability": "nonpayable",
      "type": "function"
    },
    {
      "inputs": [
        {
          "internalType": "contract IERC20",
          "name": "_busd",
          "type": "address"
        }
      ],
      "name": "setBUSDAddress",
      "outputs": [],
      "stateMutability": "nonpayable",
      "type": "function"
    },
    {
      "inputs": [
        {
          "internalType": "bool",
          "name": "_claimEnabled",
          "type": "bool"
        }
      ],
      "name": "setClaimEnabled",
      "outputs": [],
      "stateMutability": "nonpayable",
      "type": "function"
    },
    {
      "inputs": [
        {
          "internalType": "bool",
          "name": "_enabled",
          "type": "bool"
        }
      ],
      "name": "setEnabled",
      "outputs": [],
      "stateMutability": "nonpayable",
      "type": "function"
    },
    {
      "inputs": [
        {
          "internalType": "uint256",
          "name": "_miniPercent",
          "type": "uint256"
        }
      ],
      "name": "setInstantReleaseWithPercent",
      "outputs": [],
      "stateMutability": "nonpayable",
      "type": "function"
    },
    {
      "inputs": [
        {
          "internalType": "uint256",
          "name": "_holdingTime",
          "type": "uint256"
        }
      ],
      "name": "setMaxHoldingTime",
      "outputs": [],
      "stateMutability": "nonpayable",
      "type": "function"
    },
    {
      "inputs": [
        {
          "internalType": "uint256",
          "name": "_maxRaisedBUSD",
          "type": "uint256"
        }
      ],
      "name": "setMaxRaisedBUSD",
      "outputs": [],
      "stateMutability": "nonpayable",
      "type": "function"
    },
    {
      "inputs": [
        {
          "internalType": "uint256",
          "name": "_minBUSD",
          "type": "uint256"
        }
      ],
      "name": "setMinBUSDBoughtPerWallet",
      "outputs": [],
      "stateMutability": "nonpayable",
      "type": "function"
    },
    {
      "inputs": [
        {
          "internalType": "uint256",
          "name": "_privateSalePrice",
          "type": "uint256"
        }
      ],
      "name": "setPrivateSalePrice",
      "outputs": [],
      "stateMutability": "nonpayable",
      "type": "function"
    },
    {
      "inputs": [
        {
          "internalType": "uint256",
          "name": "_referralBonusPercent",
          "type": "uint256"
        }
      ],
      "name": "setReferralBonusPercent",
      "outputs": [],
      "stateMutability": "nonpayable",
      "type": "function"
    },
    {
      "inputs": [
        {
          "internalType": "uint256",
          "name": "date",
          "type": "uint256"
        }
      ],
      "name": "setStartReleaseTime",
      "outputs": [],
      "stateMutability": "nonpayable",
      "type": "function"
    },
    {
      "inputs": [
        {
          "internalType": "contract IERC20",
          "name": "_token",
          "type": "address"
        }
      ],
      "name": "setToken",
      "outputs": [],
      "stateMutability": "nonpayable",
      "type": "function"
    },
    {
      "inputs": [],
      "name": "startReleaseTime",
      "outputs": [
        {
          "internalType": "uint256",
          "name": "",
          "type": "uint256"
        }
      ],
      "stateMutability": "view",
      "type": "function"
    },
    {
      "inputs": [],
      "name": "token",
      "outputs": [
        {
          "internalType": "contract IERC20",
          "name": "",
          "type": "address"
        }
      ],
      "stateMutability": "view",
      "type": "function"
    },
    {
      "inputs": [],
      "name": "totalRewardTracking",
      "outputs": [
        {
          "internalType": "uint256",
          "name": "",
          "type": "uint256"
        }
      ],
      "stateMutability": "view",
      "type": "function"
    },
    {
      "inputs": [
        {
          "internalType": "address",
          "name": "_recipient",
          "type": "address"
        },
        {
          "internalType": "uint256",
          "name": "_amount",
          "type": "uint256"
        }
      ],
      "name": "transferBUSD",
      "outputs": [
        {
          "internalType": "bool",
          "name": "",
          "type": "bool"
        }
      ],
      "stateMutability": "nonpayable",
      "type": "function"
    },
    {
      "inputs": [
        {
          "internalType": "address",
          "name": "newOwner",
          "type": "address"
        }
      ],
      "name": "transferOwnership",
      "outputs": [],
      "stateMutability": "nonpayable",
      "type": "function"
    },
    {
      "inputs": [
        {
          "internalType": "address",
          "name": "_recipient",
          "type": "address"
        },
        {
          "internalType": "uint256",
          "name": "_amount",
          "type": "uint256"
        }
      ],
      "name": "transferToken",
      "outputs": [
        {
          "internalType": "bool",
          "name": "",
          "type": "bool"
        }
      ],
      "stateMutability": "nonpayable",
      "type": "function"
    },
    {
      "inputs": [
        {
          "internalType": "uint256",
          "name": "",
          "type": "uint256"
        }
      ],
      "name": "users",
      "outputs": [
        {
          "internalType": "address",
          "name": "",
          "type": "address"
        }
      ],
      "stateMutability": "view",
      "type": "function"
    }
  ],
  "bytecode": "0x608060405234801561001057600080fd5b50611522806100206000396000f3fe608060405234801561001057600080fd5b50600436106102325760003560e01c80637bc36e0411610130578063c4d66de8116100b8578063e9715de91161007c578063e9715de914610499578063f0f8857c146104a2578063f2fde38b146104b5578063f560d415146104c8578063fc0c546a146104d157600080fd5b8063c4d66de81461044e578063c90517e614610461578063cb22ba571461046a578063d4c4b8171461047d578063e0a2cd081461049057600080fd5b806392929a09116100ff57806392929a091461040e5780639308a7b7146104215780639481c9821461042a578063b88a802f14610433578063bbfa27951461043b57600080fd5b80637bc36e04146103cf57806382b2e257146103e25780638da5cb5b146103ea5780639134709e146103fb57600080fd5b80633c0d7987116101be57806360ccbb5d1161018257806360ccbb5d146103995780636991d438146103a25780636fcf06f1146103b55780637018137b146103be578063715018a6146103c757600080fd5b80633c0d79871461034057806341f345ef146103535780634451d89f14610366578063484f4ea91461036e5780635e42b4551461038157600080fd5b80632866ed21116102055780632866ed211461029b578063328d8f72146102a857806333ab52f5146102bb578063365b98b2146102cb57806337aff689146102f657600080fd5b806303582fc5146102375780631072cbea1461024c578063144fa6d714610274578063238dafe014610287575b600080fd5b61024a610245366004611313565b6104e4565b005b61025f61025a366004611341565b6104f1565b60405190151581526020015b60405180910390f35b61024a61028236600461136d565b610589565b60665461025f90600160a01b900460ff1681565b60695461025f9060ff1681565b61024a6102b6366004611398565b6105b3565b475b60405190815260200161026b565b6102de6102d9366004611313565b6105d9565b6040516001600160a01b03909116815260200161026b565b61032561030436600461136d565b606b6020526000908152604090208054600182015460029092015490919083565b6040805193845260208401929092529082015260600161026b565b61024a61034e366004611313565b610603565b61024a610361366004611313565b610610565b61024a61061d565b6066546102de906001600160a01b031681565b336000908152606b60205260409020600201546102bd565b6102bd60685481565b61025f6103b0366004611341565b610898565b6102bd60725481565b6102bd606e5481565b61024a6108db565b61024a6103dd366004611313565b6108ef565b6102bd6108fc565b6033546001600160a01b03166102de565b61024a6104093660046113b5565b61097d565b61024a61041c366004611398565b610d3d565b6102bd60715481565b6102bd606f5481565b61024a610d58565b61024a61044936600461136d565b610ee9565b61024a61045c36600461136d565b610f13565b6102bd60705481565b61024a610478366004611313565b6110cb565b61024a61048b366004611313565b6110d8565b6102bd606a5481565b6102bd606d5481565b61024a6104b0366004611313565b611157565b61024a6104c336600461136d565b611164565b6102bd60675481565b6065546102de906001600160a01b031681565b6104ec6111dd565b606d55565b60006104fb6111dd565b60655460405163a9059cbb60e01b81526001600160a01b038581166004830152602482018590529091169063a9059cbb906044015b602060405180830381600087803b15801561054a57600080fd5b505af115801561055e573d6000803e3d6000fd5b505050506040513d601f19601f8201168201806040525081019061058291906113e5565b9392505050565b6105916111dd565b606580546001600160a01b0319166001600160a01b0392909216919091179055565b6105bb6111dd565b60668054911515600160a01b0260ff60a01b19909216919091179055565b606c81815481106105e957600080fd5b6000918252602090912001546001600160a01b0316905081565b61060b6111dd565b607155565b6106186111dd565b606855565b60695460ff166106745760405162461bcd60e51b815260206004820152601c60248201527f5072697661746553616c65206973206e6f7420636c61696d61626c650000000060448201526064015b60405180910390fd5b6070544290811015806106a357506072546071546106929190611418565b81101580156106a357506072548110155b6106e55760405162461bcd60e51b815260206004820152601360248201527252656c65617365206e6f74207965742064756560681b604482015260640161066b565b6065546001600160a01b03166107335760405162461bcd60e51b8152602060048201526013602482015272546f6b656e20646f206e6f742075706461746560681b604482015260640161066b565b606f54336000908152606b6020526040812054909161076191620186a09161075b9190611237565b90611243565b90506072546071546107739190611418565b821061078b5750336000908152606b60205260409020545b336000908152606b60205260408120600101546107a990839061124f565b336000908152606b602052604081206001018490559091506107d382670de0b6b3a7640000611237565b60655460405163a9059cbb60e01b8152336004820152602481018390529192506001600160a01b03169063a9059cbb90604401602060405180830381600087803b15801561082057600080fd5b505af1158015610834573d6000803e3d6000fd5b505050506040513d601f19601f8201168201806040525081019061085891906113e5565b5060408051338152602081018490527f88a5966d370b9919b20f3e2c13ff65706f196a4e32cc2c12bf57088f88525874910160405180910390a150505050565b60006108a26111dd565b60665460405163a9059cbb60e01b81526001600160a01b038581166004830152602482018590529091169063a9059cbb90604401610530565b6108e36111dd565b6108ed600061125b565b565b6108f76111dd565b606755565b6065546040516370a0823160e01b81523060048201526000916001600160a01b0316906370a082319060240160206040518083038186803b15801561094057600080fd5b505afa158015610954573d6000803e3d6000fd5b505050506040513d601f19601f820116820180604052508101906109789190611430565b905090565b606654600160a01b900460ff166109d65760405162461bcd60e51b815260206004820152601760248201527f5072697661746553616c652069732064697361626c6564000000000000000000604482015260640161066b565b607254421015610a285760405162461bcd60e51b815260206004820152601e60248201527f5072697661746553616c6520646f6573206e6f74206f70656e2073616c650000604482015260640161066b565b6000610a3f6067548461123790919063ffffffff16565b9050606a54811015610aa35760405162461bcd60e51b815260206004820152602760248201527f4255534420627579206973206c657373207468616e20746865204d696e2074686044820152661c995cda1bdb1960ca1b606482015260840161066b565b6068546066546040516370a0823160e01b8152306004820152610b2d9184916001600160a01b03909116906370a082319060240160206040518083038186803b158015610aef57600080fd5b505afa158015610b03573d6000803e3d6000fd5b505050506040513d601f19601f82011682018060405250810190610b279190611430565b906112ad565b1115610b7b5760405162461bcd60e51b815260206004820152601f60248201527f4d617820726169736564204255534420616d6f756e7420657863656564656400604482015260640161066b565b6066546040516323b872dd60e01b8152336004820152306024820152604481018390526001600160a01b03909116906323b872dd90606401602060405180830381600087803b158015610bcd57600080fd5b505af1158015610be1573d6000803e3d6000fd5b505050506040513d601f19601f82011682018060405250810190610c0591906113e5565b610c515760405162461bcd60e51b815260206004820152601860248201527f4661696c757265204f6e2042555344205472616e736665720000000000000000604482015260640161066b565b336000908152606b6020526040902054610c6b90846112ad565b336000908152606b60205260409020556001600160a01b03821615610cff576000610ca8620186a061075b606d548561123790919063ffffffff16565b6001600160a01b0384166000908152606b6020526040902060020154909150610cd190826112ad565b6001600160a01b0384166000908152606b6020526040902060020155606e54610cfa90826112ad565b606e55505b60408051338152602081018590527fc55650ccda1011e1cdc769b1fbf546ebb8c97800b6072b49e06cd560305b1d67910160405180910390a1505050565b610d456111dd565b6069805460ff1916911515919091179055565b336000908152606b60205260408120600201805491905580610da85760405162461bcd60e51b8152602060048201526009602482015268139bc81c995dd85c9960ba1b604482015260640161066b565b336000908152606b602052604090205480610e055760405162461bcd60e51b815260206004820152601960248201527f486176656e277420626f7567687420746f6b656e732079657400000000000000604482015260640161066b565b60665460405163a9059cbb60e01b8152336004820152602481018490526001600160a01b039091169063a9059cbb90604401602060405180830381600087803b158015610e5157600080fd5b505af1158015610e65573d6000803e3d6000fd5b505050506040513d601f19601f82011682018060405250810190610e8991906113e5565b610ed55760405162461bcd60e51b815260206004820152601b60248201527f5472616e73666572206275736420746f207265666572206661696c0000000000604482015260640161066b565b606e54610ee2908361124f565b606e555050565b610ef16111dd565b606680546001600160a01b0319166001600160a01b0392909216919091179055565b600054610100900460ff1615808015610f335750600054600160ff909116105b80610f4d5750303b158015610f4d575060005460ff166001145b610fb05760405162461bcd60e51b815260206004820152602e60248201527f496e697469616c697a61626c653a20636f6e747261637420697320616c72656160448201526d191e481a5b9a5d1a585b1a5e995960921b606482015260840161066b565b6000805460ff191660011790558015610fd3576000805461ff0019166101001790555b606580546001600160a01b0319166001600160a01b0384161790556066805460ff60a01b1916905566016bcc41e900006067556069805460ff1916905569152d02c7e14af680000060685568056bc75e2d63100000606a55612710606d556301e13380607181905542607281905561104b9190611418565b6070556000606f55606680546001600160a01b03191673ed24fc36d5ee211ea25a80239fb8c4cfd80f12ee1790556110816112b9565b80156110c7576000805461ff0019169055604051600181527f7f26b83ff96e1f2b6a682f133852f6798a09c465da95921460cefb38474024989060200160405180910390a15b5050565b6110d36111dd565b606a55565b6110e06111dd565b42607055606f54620186a0906110f690836112ad565b11156111445760405162461bcd60e51b815260206004820152601c60248201527f546f74616c2070657263656e74207468616e206d6f7265203130302500000000604482015260640161066b565b606f5461115190826112ad565b606f5550565b61115f6111dd565b607255565b61116c6111dd565b6001600160a01b0381166111d15760405162461bcd60e51b815260206004820152602660248201527f4f776e61626c653a206e6577206f776e657220697320746865207a65726f206160448201526564647265737360d01b606482015260840161066b565b6111da8161125b565b50565b6033546001600160a01b031633146108ed5760405162461bcd60e51b815260206004820181905260248201527f4f776e61626c653a2063616c6c6572206973206e6f7420746865206f776e6572604482015260640161066b565b60006105828284611449565b60006105828284611468565b6000610582828461148a565b603380546001600160a01b038381166001600160a01b0319831681179093556040519116919082907f8be0079c531659141344cd1fd0a4f28419497f9722a3daafe3b4186f6b6457e090600090a35050565b60006105828284611418565b600054610100900460ff166112e05760405162461bcd60e51b815260040161066b906114a1565b6108ed600054610100900460ff1661130a5760405162461bcd60e51b815260040161066b906114a1565b6108ed3361125b565b60006020828403121561132557600080fd5b5035919050565b6001600160a01b03811681146111da57600080fd5b6000806040838503121561135457600080fd5b823561135f8161132c565b946020939093013593505050565b60006020828403121561137f57600080fd5b81356105828161132c565b80151581146111da57600080fd5b6000602082840312156113aa57600080fd5b81356105828161138a565b600080604083850312156113c857600080fd5b8235915060208301356113da8161132c565b809150509250929050565b6000602082840312156113f757600080fd5b81516105828161138a565b634e487b7160e01b600052601160045260246000fd5b6000821982111561142b5761142b611402565b500190565b60006020828403121561144257600080fd5b5051919050565b600081600019048311821515161561146357611463611402565b500290565b60008261148557634e487b7160e01b600052601260045260246000fd5b500490565b60008282101561149c5761149c611402565b500390565b6020808252602b908201527f496e697469616c697a61626c653a20636f6e7472616374206973206e6f74206960408201526a6e697469616c697a696e6760a81b60608201526080019056fea2646970667358221220438a140bd60dd57824a607afc1d27aa7e9bad9fb0b6a92f43e1d8034cb6d54c264736f6c63430008090033",
  "linkReferences": {},
  "deployedLinkReferences": {}
}