{
  "_format": "hh-sol-artifact-1",
  "contractName": "PrivateSale",
  "sourceName": "contracts/PrivateSale.sol",
  "abi": [
    {
      "anonymous": false,
      "inputs": [
        {
          "indexed": false,
          "internalType": "address",
          "name": "buyer",
          "type": "address"
        },
        {
          "indexed": false,
          "internalType": "uint256",
          "name": "tokenAmount",
          "type": "uint256"
        }
      ],
      "name": "Bought",
      "type": "event"
    },
    {
      "anonymous": false,
      "inputs": [
        {
          "indexed": false,
          "internalType": "uint8",
          "name": "version",
          "type": "uint8"
        }
      ],
      "name": "Initialized",
      "type": "event"
    },
    {
      "anonymous": false,
      "inputs": [
        {
          "indexed": true,
          "internalType": "address",
          "name": "previousOwner",
          "type": "address"
        },
        {
          "indexed": true,
          "internalType": "address",
          "name": "newOwner",
          "type": "address"
        }
      ],
      "name": "OwnershipTransferred",
      "type": "event"
    },
    {
      "anonymous": false,
      "inputs": [
        {
          "indexed": false,
          "internalType": "address",
          "name": "",
          "type": "address"
        },
        {
          "indexed": false,
          "internalType": "uint256",
          "name": "",
          "type": "uint256"
        }
      ],
      "name": "Received",
      "type": "event"
    },
    {
      "inputs": [],
      "name": "BUSD",
      "outputs": [
        {
          "internalType": "contract IERC20",
          "name": "",
          "type": "address"
        }
      ],
      "stateMutability": "view",
      "type": "function"
    },
    {
      "inputs": [
        {
          "internalType": "address",
          "name": "",
          "type": "address"
        }
      ],
      "name": "addressToUserData",
      "outputs": [
        {
          "internalType": "uint256",
          "name": "totalTokenAmount",
          "type": "uint256"
        },
        {
          "internalType": "uint256",
          "name": "tokenAmountReceived",
          "type": "uint256"
        },
        {
          "internalType": "uint256",
          "name": "totalRewardAmount",
          "type": "uint256"
        },
        {
          "internalType": "uint256",
          "name": "rewardAmountReceived",
          "type": "uint256"
        }
      ],
      "stateMutability": "view",
      "type": "function"
    },
    {
      "inputs": [
        {
          "internalType": "uint256",
          "name": "amount",
          "type": "uint256"
        },
        {
          "internalType": "address",
          "name": "referAddress",
          "type": "address"
        }
      ],
      "name": "buyToken",
      "outputs": [],
      "stateMutability": "nonpayable",
      "type": "function"
    },
    {
      "inputs": [],
      "name": "claimEnabled",
      "outputs": [
        {
          "internalType": "bool",
          "name": "",
          "type": "bool"
        }
      ],
      "stateMutability": "view",
      "type": "function"
    },
    {
      "inputs": [],
      "name": "claimReward",
      "outputs": [],
      "stateMutability": "nonpayable",
      "type": "function"
    },
    {
      "inputs": [],
      "name": "claimToken",
      "outputs": [],
      "stateMutability": "nonpayable",
      "type": "function"
    },
    {
      "inputs": [],
      "name": "enabled",
      "outputs": [
        {
          "internalType": "bool",
          "name": "",
          "type": "bool"
        }
      ],
      "stateMutability": "view",
      "type": "function"
    },
    {
      "inputs": [],
      "name": "getBUSDBalanceOfContract",
      "outputs": [
        {
          "internalType": "uint256",
          "name": "",
          "type": "uint256"
        }
      ],
      "stateMutability": "view",
      "type": "function"
    },
    {
      "inputs": [],
      "name": "getRewardBalance",
      "outputs": [
        {
          "internalType": "uint256",
          "name": "",
          "type": "uint256"
        }
      ],
      "stateMutability": "view",
      "type": "function"
    },
    {
      "inputs": [],
      "name": "getTokenBalanceOfContract",
      "outputs": [
        {
          "internalType": "uint256",
          "name": "",
          "type": "uint256"
        }
      ],
      "stateMutability": "view",
      "type": "function"
    },
    {
      "inputs": [
        {
          "internalType": "contract IERC20",
          "name": "_token",
          "type": "address"
        }
      ],
      "name": "initialize",
      "outputs": [],
      "stateMutability": "nonpayable",
      "type": "function"
    },
    {
      "inputs": [],
      "name": "instantRelease",
      "outputs": [
        {
          "internalType": "uint256",
          "name": "",
          "type": "uint256"
        }
      ],
      "stateMutability": "view",
      "type": "function"
    },
    {
      "inputs": [],
      "name": "isClaimedReward",
      "outputs": [
        {
          "internalType": "bool",
          "name": "",
          "type": "bool"
        }
      ],
      "stateMutability": "view",
      "type": "function"
    },
    {
      "inputs": [],
      "name": "isClaimedToken",
      "outputs": [
        {
          "internalType": "bool",
          "name": "",
          "type": "bool"
        }
      ],
      "stateMutability": "view",
      "type": "function"
    },
    {
      "inputs": [],
      "name": "maxHoldingTime",
      "outputs": [
        {
          "internalType": "uint256",
          "name": "",
          "type": "uint256"
        }
      ],
      "stateMutability": "view",
      "type": "function"
    },
    {
      "inputs": [],
      "name": "maxRaisedBUSD",
      "outputs": [
        {
          "internalType": "uint256",
          "name": "",
          "type": "uint256"
        }
      ],
      "stateMutability": "view",
      "type": "function"
    },
    {
      "inputs": [],
      "name": "minBUSDBoughtPerWallet",
      "outputs": [
        {
          "internalType": "uint256",
          "name": "",
          "type": "uint256"
        }
      ],
      "stateMutability": "view",
      "type": "function"
    },
    {
      "inputs": [],
      "name": "owner",
      "outputs": [
        {
          "internalType": "address",
          "name": "",
          "type": "address"
        }
      ],
      "stateMutability": "view",
      "type": "function"
    },
    {
      "inputs": [],
      "name": "privateSalePrice",
      "outputs": [
        {
          "internalType": "uint256",
          "name": "",
          "type": "uint256"
        }
      ],
      "stateMutability": "view",
      "type": "function"
    },
    {
      "inputs": [],
      "name": "referralBonusPercent",
      "outputs": [
        {
          "internalType": "uint256",
          "name": "",
          "type": "uint256"
        }
      ],
      "stateMutability": "view",
      "type": "function"
    },
    {
      "inputs": [],
      "name": "releaseTokenTotalPercent",
      "outputs": [
        {
          "internalType": "uint256",
          "name": "",
          "type": "uint256"
        }
      ],
      "stateMutability": "view",
      "type": "function"
    },
    {
      "inputs": [],
      "name": "renounceOwnership",
      "outputs": [],
      "stateMutability": "nonpayable",
      "type": "function"
    },
    {
      "inputs": [
        {
          "internalType": "contract IERC20",
          "name": "_busd",
          "type": "address"
        }
      ],
      "name": "setBUSDAddress",
      "outputs": [],
      "stateMutability": "nonpayable",
      "type": "function"
    },
    {
      "inputs": [
        {
          "internalType": "bool",
          "name": "_claimEnabled",
          "type": "bool"
        }
      ],
      "name": "setClaimEnabled",
      "outputs": [],
      "stateMutability": "nonpayable",
      "type": "function"
    },
    {
      "inputs": [
        {
          "internalType": "bool",
          "name": "_enabled",
          "type": "bool"
        }
      ],
      "name": "setEnabled",
      "outputs": [],
      "stateMutability": "nonpayable",
      "type": "function"
    },
    {
      "inputs": [
        {
          "internalType": "uint256",
          "name": "_miniPercent",
          "type": "uint256"
        }
      ],
      "name": "setInstantReleaseWithPercent",
      "outputs": [],
      "stateMutability": "nonpayable",
      "type": "function"
    },
    {
      "inputs": [
        {
          "internalType": "uint256",
          "name": "_holdingTime",
          "type": "uint256"
        }
      ],
      "name": "setMaxHoldingTime",
      "outputs": [],
      "stateMutability": "nonpayable",
      "type": "function"
    },
    {
      "inputs": [
        {
          "internalType": "uint256",
          "name": "_maxRaisedBUSD",
          "type": "uint256"
        }
      ],
      "name": "setMaxRaisedBUSD",
      "outputs": [],
      "stateMutability": "nonpayable",
      "type": "function"
    },
    {
      "inputs": [
        {
          "internalType": "uint256",
          "name": "_minBUSD",
          "type": "uint256"
        }
      ],
      "name": "setMinBUSDBoughtPerWallet",
      "outputs": [],
      "stateMutability": "nonpayable",
      "type": "function"
    },
    {
      "inputs": [
        {
          "internalType": "uint256",
          "name": "_privateSalePrice",
          "type": "uint256"
        }
      ],
      "name": "setPrivateSalePrice",
      "outputs": [],
      "stateMutability": "nonpayable",
      "type": "function"
    },
    {
      "inputs": [
        {
          "internalType": "uint256",
          "name": "_referralBonusPercent",
          "type": "uint256"
        }
      ],
      "name": "setReferralBonusPercent",
      "outputs": [],
      "stateMutability": "nonpayable",
      "type": "function"
    },
    {
      "inputs": [
        {
          "internalType": "uint256",
          "name": "date",
          "type": "uint256"
        }
      ],
      "name": "setStartReleaseTime",
      "outputs": [],
      "stateMutability": "nonpayable",
      "type": "function"
    },
    {
      "inputs": [
        {
          "internalType": "contract IERC20",
          "name": "_token",
          "type": "address"
        }
      ],
      "name": "setToken",
      "outputs": [],
      "stateMutability": "nonpayable",
      "type": "function"
    },
    {
      "inputs": [],
      "name": "startReleaseTime",
      "outputs": [
        {
          "internalType": "uint256",
          "name": "",
          "type": "uint256"
        }
      ],
      "stateMutability": "view",
      "type": "function"
    },
    {
      "inputs": [],
      "name": "token",
      "outputs": [
        {
          "internalType": "contract IERC20",
          "name": "",
          "type": "address"
        }
      ],
      "stateMutability": "view",
      "type": "function"
    },
    {
      "inputs": [],
      "name": "totalRewardTracking",
      "outputs": [
        {
          "internalType": "uint256",
          "name": "",
          "type": "uint256"
        }
      ],
      "stateMutability": "view",
      "type": "function"
    },
    {
      "inputs": [
        {
          "internalType": "address",
          "name": "_recipient",
          "type": "address"
        },
        {
          "internalType": "uint256",
          "name": "_amount",
          "type": "uint256"
        }
      ],
      "name": "transferBUSD",
      "outputs": [
        {
          "internalType": "bool",
          "name": "",
          "type": "bool"
        }
      ],
      "stateMutability": "nonpayable",
      "type": "function"
    },
    {
      "inputs": [
        {
          "internalType": "address",
          "name": "newOwner",
          "type": "address"
        }
      ],
      "name": "transferOwnership",
      "outputs": [],
      "stateMutability": "nonpayable",
      "type": "function"
    },
    {
      "inputs": [
        {
          "internalType": "address",
          "name": "_recipient",
          "type": "address"
        },
        {
          "internalType": "uint256",
          "name": "_amount",
          "type": "uint256"
        }
      ],
      "name": "transferToken",
      "outputs": [
        {
          "internalType": "bool",
          "name": "",
          "type": "bool"
        }
      ],
      "stateMutability": "nonpayable",
      "type": "function"
    },
    {
      "inputs": [
        {
          "internalType": "uint256",
          "name": "",
          "type": "uint256"
        }
      ],
      "name": "users",
      "outputs": [
        {
          "internalType": "address",
          "name": "",
          "type": "address"
        }
      ],
      "stateMutability": "view",
      "type": "function"
    }
  ],
  "bytecode": "0x608060405234801561001057600080fd5b5061165e806100206000396000f3fe608060405234801561001057600080fd5b50600436106102485760003560e01c80638da5cb5b1161013b578063cb22ba57116100b8578063e9715de91161007c578063e9715de9146104c0578063f0f8857c146104c9578063f2fde38b146104dc578063f560d415146104ef578063fc0c546a146104f857600080fd5b8063cb22ba5714610481578063cf5fc9c614610494578063d4c4b8171461049c578063df3e4d3c146104af578063e0a2cd08146104b757600080fd5b8063b88a802f116100ff578063b88a802f14610442578063bbfa27951461044a578063c4d66de81461045d578063c90517e614610470578063c94f4c1d1461047957600080fd5b80638da5cb5b146103f95780639134709e1461040a57806392929a091461041d5780639308a7b7146104305780639481c9821461043957600080fd5b80634451d89f116101c95780636991d4381161018d5780636991d438146103b95780636fcf06f1146103cc5780637018137b146103d5578063715018a6146103de5780637bc36e04146103e657600080fd5b80634451d89f14610377578063484f4ea91461037f5780635e42b45514610392578063601dc15e146103a857806360ccbb5d146103b057600080fd5b8063328d8f7211610210578063328d8f72146102be578063365b98b2146102d157806337aff689146102fc5780633c0d79871461035157806341f345ef1461036457600080fd5b806303582fc51461024d5780631072cbea14610262578063144fa6d71461028a578063238dafe01461029d5780632866ed21146102b1575b600080fd5b61026061025b36600461144f565b61050b565b005b61027561027036600461147d565b610518565b60405190151581526020015b60405180910390f35b6102606102983660046114a9565b6105b0565b60665461027590600160a01b900460ff1681565b6069546102759060ff1681565b6102606102cc3660046114d4565b6105da565b6102e46102df36600461144f565b610600565b6040516001600160a01b039091168152602001610281565b61033161030a3660046114a9565b606b6020526000908152604090208054600182015460028301546003909301549192909184565b604080519485526020850193909352918301526060820152608001610281565b61026061035f36600461144f565b61062a565b61026061037236600461144f565b610637565b610260610644565b6066546102e4906001600160a01b031681565b61039a6108bf565b604051908152602001610281565b6102756108e8565b61039a60685481565b6102756103c736600461147d565b610925565b61039a60725481565b61039a606e5481565b610260610968565b6102606103f436600461144f565b61097c565b6033546001600160a01b03166102e4565b6102606104183660046114f1565b610989565b61026061042b3660046114d4565b610d49565b61039a60715481565b61039a606f5481565b610260610d64565b6102606104583660046114a9565b610f1e565b61026061046b3660046114a9565b610f48565b61039a60705481565b61039a611100565b61026061048f36600461144f565b61117d565b61039a61118a565b6102606104aa36600461144f565b6111bb565b61027561123a565b61039a606a5481565b61039a606d5481565b6102606104d736600461144f565b611293565b6102606104ea3660046114a9565b6112a0565b61039a60675481565b6065546102e4906001600160a01b031681565b610513611319565b606d55565b6000610522611319565b60655460405163a9059cbb60e01b81526001600160a01b038581166004830152602482018590529091169063a9059cbb906044015b602060405180830381600087803b15801561057157600080fd5b505af1158015610585573d6000803e3d6000fd5b505050506040513d601f19601f820116820180604052508101906105a99190611521565b9392505050565b6105b8611319565b606580546001600160a01b0319166001600160a01b0392909216919091179055565b6105e2611319565b60668054911515600160a01b0260ff60a01b19909216919091179055565b606c818154811061061057600080fd5b6000918252602090912001546001600160a01b0316905081565b610632611319565b607155565b61063f611319565b606855565b60695460ff1661069b5760405162461bcd60e51b815260206004820152601c60248201527f5072697661746553616c65206973206e6f7420636c61696d61626c650000000060448201526064015b60405180910390fd5b6070544290811015806106ca57506072546071546106b99190611554565b81101580156106ca57506072548110155b61070c5760405162461bcd60e51b815260206004820152601360248201527252656c65617365206e6f74207965742064756560681b6044820152606401610692565b6065546001600160a01b031661075a5760405162461bcd60e51b8152602060048201526013602482015272546f6b656e20646f206e6f742075706461746560681b6044820152606401610692565b606f54336000908152606b6020526040812054909161078891620186a0916107829190611373565b9061137f565b905060725460715461079a9190611554565b82106107b25750336000908152606b60205260409020545b336000908152606b60205260408120600101546107d090839061138b565b336000908152606b602052604081206001018490559091506107fa82670de0b6b3a7640000611373565b60655460405163a9059cbb60e01b8152336004820152602481018390529192506001600160a01b03169063a9059cbb90604401602060405180830381600087803b15801561084757600080fd5b505af115801561085b573d6000803e3d6000fd5b505050506040513d601f19601f8201168201806040525081019061087f9190611521565b5060408051338152602081018490527f88a5966d370b9919b20f3e2c13ff65706f196a4e32cc2c12bf57088f88525874910160405180910390a150505050565b336000908152606b6020526040812060038101546002909101546108e3919061156c565b905090565b336000908152606b602052604081206003810154600290910154829161090d9161156c565b9050801561091d57600191505090565b600091505090565b600061092f611319565b60665460405163a9059cbb60e01b81526001600160a01b038581166004830152602482018590529091169063a9059cbb90604401610557565b610970611319565b61097a6000611397565b565b610984611319565b606755565b606654600160a01b900460ff166109e25760405162461bcd60e51b815260206004820152601760248201527f5072697661746553616c652069732064697361626c65640000000000000000006044820152606401610692565b607254421015610a345760405162461bcd60e51b815260206004820152601e60248201527f5072697661746553616c6520646f6573206e6f74206f70656e2073616c6500006044820152606401610692565b6000610a4b6067548461137390919063ffffffff16565b9050606a54811015610aaf5760405162461bcd60e51b815260206004820152602760248201527f4255534420627579206973206c657373207468616e20746865204d696e2074686044820152661c995cda1bdb1960ca1b6064820152608401610692565b6068546066546040516370a0823160e01b8152306004820152610b399184916001600160a01b03909116906370a082319060240160206040518083038186803b158015610afb57600080fd5b505afa158015610b0f573d6000803e3d6000fd5b505050506040513d601f19601f82011682018060405250810190610b339190611583565b906113e9565b1115610b875760405162461bcd60e51b815260206004820152601f60248201527f4d617820726169736564204255534420616d6f756e74206578636565646564006044820152606401610692565b6066546040516323b872dd60e01b8152336004820152306024820152604481018390526001600160a01b03909116906323b872dd90606401602060405180830381600087803b158015610bd957600080fd5b505af1158015610bed573d6000803e3d6000fd5b505050506040513d601f19601f82011682018060405250810190610c119190611521565b610c5d5760405162461bcd60e51b815260206004820152601860248201527f4661696c757265204f6e2042555344205472616e7366657200000000000000006044820152606401610692565b336000908152606b6020526040902054610c7790846113e9565b336000908152606b60205260409020556001600160a01b03821615610d0b576000610cb4620186a0610782606d548561137390919063ffffffff16565b6001600160a01b0384166000908152606b6020526040902060020154909150610cdd90826113e9565b6001600160a01b0384166000908152606b6020526040902060020155606e54610d0690826113e9565b606e55505b60408051338152602081018590527fc55650ccda1011e1cdc769b1fbf546ebb8c97800b6072b49e06cd560305b1d67910160405180910390a1505050565b610d51611319565b6069805460ff1916911515919091179055565b336000908152606b602052604081206003810154600290910154610d88919061156c565b336000908152606b602052604090206002810154600390910155905080610ddd5760405162461bcd60e51b8152602060048201526009602482015268139bc81c995dd85c9960ba1b6044820152606401610692565b336000908152606b602052604090205480610e3a5760405162461bcd60e51b815260206004820152601960248201527f486176656e277420626f7567687420746f6b656e7320796574000000000000006044820152606401610692565b60665460405163a9059cbb60e01b8152336004820152602481018490526001600160a01b039091169063a9059cbb90604401602060405180830381600087803b158015610e8657600080fd5b505af1158015610e9a573d6000803e3d6000fd5b505050506040513d601f19601f82011682018060405250810190610ebe9190611521565b610f0a5760405162461bcd60e51b815260206004820152601b60248201527f5472616e73666572206275736420746f207265666572206661696c00000000006044820152606401610692565b606e54610f17908361138b565b606e555050565b610f26611319565b606680546001600160a01b0319166001600160a01b0392909216919091179055565b600054610100900460ff1615808015610f685750600054600160ff909116105b80610f825750303b158015610f82575060005460ff166001145b610fe55760405162461bcd60e51b815260206004820152602e60248201527f496e697469616c697a61626c653a20636f6e747261637420697320616c72656160448201526d191e481a5b9a5d1a585b1a5e995960921b6064820152608401610692565b6000805460ff191660011790558015611008576000805461ff0019166101001790555b606580546001600160a01b0319166001600160a01b0384161790556066805460ff60a01b1916905566016bcc41e900006067556069805460ff1916905569152d02c7e14af680000060685568056bc75e2d63100000606a55612710606d556301e1338060718190554260728190556110809190611554565b6070556000606f55606680546001600160a01b03191673ed24fc36d5ee211ea25a80239fb8c4cfd80f12ee1790556110b66113f5565b80156110fc576000805461ff0019169055604051600181527f7f26b83ff96e1f2b6a682f133852f6798a09c465da95921460cefb38474024989060200160405180910390a15b5050565b6065546040516370a0823160e01b81523060048201526000916001600160a01b0316906370a08231906024015b60206040518083038186803b15801561114557600080fd5b505afa158015611159573d6000803e3d6000fd5b505050506040513d601f19601f820116820180604052508101906108e39190611583565b611185611319565b606a55565b6066546040516370a0823160e01b81523060048201526000916001600160a01b0316906370a082319060240161112d565b6111c3611319565b42607055606f54620186a0906111d990836113e9565b11156112275760405162461bcd60e51b815260206004820152601c60248201527f546f74616c2070657263656e74207468616e206d6f72652031303025000000006044820152606401610692565b606f5461123490826113e9565b606f5550565b606f54336000908152606b60205260408120549091829161126391620186a09161078291611373565b336000908152606b60205260409020600101549091508082141561128a5760009250505090565b60019250505090565b61129b611319565b607255565b6112a8611319565b6001600160a01b03811661130d5760405162461bcd60e51b815260206004820152602660248201527f4f776e61626c653a206e6577206f776e657220697320746865207a65726f206160448201526564647265737360d01b6064820152608401610692565b61131681611397565b50565b6033546001600160a01b0316331461097a5760405162461bcd60e51b815260206004820181905260248201527f4f776e61626c653a2063616c6c6572206973206e6f7420746865206f776e65726044820152606401610692565b60006105a9828461159c565b60006105a982846115bb565b60006105a9828461156c565b603380546001600160a01b038381166001600160a01b0319831681179093556040519116919082907f8be0079c531659141344cd1fd0a4f28419497f9722a3daafe3b4186f6b6457e090600090a35050565b60006105a98284611554565b600054610100900460ff1661141c5760405162461bcd60e51b8152600401610692906115dd565b61097a600054610100900460ff166114465760405162461bcd60e51b8152600401610692906115dd565b61097a33611397565b60006020828403121561146157600080fd5b5035919050565b6001600160a01b038116811461131657600080fd5b6000806040838503121561149057600080fd5b823561149b81611468565b946020939093013593505050565b6000602082840312156114bb57600080fd5b81356105a981611468565b801515811461131657600080fd5b6000602082840312156114e657600080fd5b81356105a9816114c6565b6000806040838503121561150457600080fd5b82359150602083013561151681611468565b809150509250929050565b60006020828403121561153357600080fd5b81516105a9816114c6565b634e487b7160e01b600052601160045260246000fd5b600082198211156115675761156761153e565b500190565b60008282101561157e5761157e61153e565b500390565b60006020828403121561159557600080fd5b5051919050565b60008160001904831182151516156115b6576115b661153e565b500290565b6000826115d857634e487b7160e01b600052601260045260246000fd5b500490565b6020808252602b908201527f496e697469616c697a61626c653a20636f6e7472616374206973206e6f74206960408201526a6e697469616c697a696e6760a81b60608201526080019056fea2646970667358221220b7e18a09ff8a040ddd5de857bbea59ecdaf4a0ee942feeae0fd355d73d189f1b64736f6c63430008090033",
  "linkReferences": {},
  "deployedLinkReferences": {}
}