{
  "_format": "hh-sol-artifact-1",
  "contractName": "PrivateSale",
  "sourceName": "contracts/PrivateSale.sol",
  "abi": [
    {
      "anonymous": false,
      "inputs": [
        {
          "indexed": false,
          "internalType": "address",
          "name": "buyer",
          "type": "address"
        },
        {
          "indexed": false,
          "internalType": "uint256",
          "name": "tokenAmount",
          "type": "uint256"
        }
      ],
      "name": "Bought",
      "type": "event"
    },
    {
      "anonymous": false,
      "inputs": [
        {
          "indexed": false,
          "internalType": "uint8",
          "name": "version",
          "type": "uint8"
        }
      ],
      "name": "Initialized",
      "type": "event"
    },
    {
      "anonymous": false,
      "inputs": [
        {
          "indexed": true,
          "internalType": "address",
          "name": "previousOwner",
          "type": "address"
        },
        {
          "indexed": true,
          "internalType": "address",
          "name": "newOwner",
          "type": "address"
        }
      ],
      "name": "OwnershipTransferred",
      "type": "event"
    },
    {
      "anonymous": false,
      "inputs": [
        {
          "indexed": false,
          "internalType": "address",
          "name": "",
          "type": "address"
        },
        {
          "indexed": false,
          "internalType": "uint256",
          "name": "",
          "type": "uint256"
        }
      ],
      "name": "Received",
      "type": "event"
    },
    {
      "inputs": [],
      "name": "BUSD",
      "outputs": [
        {
          "internalType": "contract IERC20",
          "name": "",
          "type": "address"
        }
      ],
      "stateMutability": "view",
      "type": "function"
    },
    {
      "inputs": [
        {
          "internalType": "address",
          "name": "",
          "type": "address"
        }
      ],
      "name": "addressToUserData",
      "outputs": [
        {
          "internalType": "uint256",
          "name": "totalTokenAmount",
          "type": "uint256"
        },
        {
          "internalType": "uint256",
          "name": "tokenAmountReceived",
          "type": "uint256"
        },
        {
          "internalType": "uint256",
          "name": "totalRewardAmount",
          "type": "uint256"
        },
        {
          "internalType": "uint256",
          "name": "rewardAmountReceived",
          "type": "uint256"
        }
      ],
      "stateMutability": "view",
      "type": "function"
    },
    {
      "inputs": [
        {
          "internalType": "uint256",
          "name": "amount",
          "type": "uint256"
        },
        {
          "internalType": "address",
          "name": "referAddress",
          "type": "address"
        }
      ],
      "name": "buyToken",
      "outputs": [],
      "stateMutability": "nonpayable",
      "type": "function"
    },
    {
      "inputs": [],
      "name": "claimEnabled",
      "outputs": [
        {
          "internalType": "bool",
          "name": "",
          "type": "bool"
        }
      ],
      "stateMutability": "view",
      "type": "function"
    },
    {
      "inputs": [],
      "name": "claimReward",
      "outputs": [],
      "stateMutability": "nonpayable",
      "type": "function"
    },
    {
      "inputs": [],
      "name": "claimToken",
      "outputs": [],
      "stateMutability": "nonpayable",
      "type": "function"
    },
    {
      "inputs": [],
      "name": "enabled",
      "outputs": [
        {
          "internalType": "bool",
          "name": "",
          "type": "bool"
        }
      ],
      "stateMutability": "view",
      "type": "function"
    },
    {
      "inputs": [],
      "name": "getBUSDBalanceOfContract",
      "outputs": [
        {
          "internalType": "uint256",
          "name": "",
          "type": "uint256"
        }
      ],
      "stateMutability": "view",
      "type": "function"
    },
    {
      "inputs": [],
      "name": "getRewardBalance",
      "outputs": [
        {
          "internalType": "uint256",
          "name": "",
          "type": "uint256"
        }
      ],
      "stateMutability": "view",
      "type": "function"
    },
    {
      "inputs": [],
      "name": "getTokenBalanceOfContract",
      "outputs": [
        {
          "internalType": "uint256",
          "name": "",
          "type": "uint256"
        }
      ],
      "stateMutability": "view",
      "type": "function"
    },
    {
      "inputs": [
        {
          "internalType": "contract IERC20",
          "name": "_token",
          "type": "address"
        }
      ],
      "name": "initialize",
      "outputs": [],
      "stateMutability": "nonpayable",
      "type": "function"
    },
    {
      "inputs": [],
      "name": "instantRelease",
      "outputs": [
        {
          "internalType": "uint256",
          "name": "",
          "type": "uint256"
        }
      ],
      "stateMutability": "view",
      "type": "function"
    },
    {
      "inputs": [],
      "name": "isClaimedReward",
      "outputs": [
        {
          "internalType": "bool",
          "name": "",
          "type": "bool"
        }
      ],
      "stateMutability": "view",
      "type": "function"
    },
    {
      "inputs": [],
      "name": "isClaimedToken",
      "outputs": [
        {
          "internalType": "bool",
          "name": "",
          "type": "bool"
        }
      ],
      "stateMutability": "view",
      "type": "function"
    },
    {
      "inputs": [],
      "name": "maxBUSDBoughtPerWallet",
      "outputs": [
        {
          "internalType": "uint256",
          "name": "",
          "type": "uint256"
        }
      ],
      "stateMutability": "view",
      "type": "function"
    },
    {
      "inputs": [],
      "name": "maxHoldingTime",
      "outputs": [
        {
          "internalType": "uint256",
          "name": "",
          "type": "uint256"
        }
      ],
      "stateMutability": "view",
      "type": "function"
    },
    {
      "inputs": [],
      "name": "maxRaisedBUSD",
      "outputs": [
        {
          "internalType": "uint256",
          "name": "",
          "type": "uint256"
        }
      ],
      "stateMutability": "view",
      "type": "function"
    },
    {
      "inputs": [],
      "name": "minBUSDBoughtPerWallet",
      "outputs": [
        {
          "internalType": "uint256",
          "name": "",
          "type": "uint256"
        }
      ],
      "stateMutability": "view",
      "type": "function"
    },
    {
      "inputs": [],
      "name": "owner",
      "outputs": [
        {
          "internalType": "address",
          "name": "",
          "type": "address"
        }
      ],
      "stateMutability": "view",
      "type": "function"
    },
    {
      "inputs": [],
      "name": "privateSalePrice",
      "outputs": [
        {
          "internalType": "uint256",
          "name": "",
          "type": "uint256"
        }
      ],
      "stateMutability": "view",
      "type": "function"
    },
    {
      "inputs": [],
      "name": "referralBonusPercent",
      "outputs": [
        {
          "internalType": "uint256",
          "name": "",
          "type": "uint256"
        }
      ],
      "stateMutability": "view",
      "type": "function"
    },
    {
      "inputs": [],
      "name": "releaseTokenTotalPercent",
      "outputs": [
        {
          "internalType": "uint256",
          "name": "",
          "type": "uint256"
        }
      ],
      "stateMutability": "view",
      "type": "function"
    },
    {
      "inputs": [],
      "name": "renounceOwnership",
      "outputs": [],
      "stateMutability": "nonpayable",
      "type": "function"
    },
    {
      "inputs": [
        {
          "internalType": "contract IERC20",
          "name": "_busd",
          "type": "address"
        }
      ],
      "name": "setBUSDAddress",
      "outputs": [],
      "stateMutability": "nonpayable",
      "type": "function"
    },
    {
      "inputs": [
        {
          "internalType": "bool",
          "name": "_claimEnabled",
          "type": "bool"
        }
      ],
      "name": "setClaimEnabled",
      "outputs": [],
      "stateMutability": "nonpayable",
      "type": "function"
    },
    {
      "inputs": [
        {
          "internalType": "bool",
          "name": "_enabled",
          "type": "bool"
        }
      ],
      "name": "setEnabled",
      "outputs": [],
      "stateMutability": "nonpayable",
      "type": "function"
    },
    {
      "inputs": [
        {
          "internalType": "uint256",
          "name": "_miniPercent",
          "type": "uint256"
        }
      ],
      "name": "setInstantReleaseWithPercent",
      "outputs": [],
      "stateMutability": "nonpayable",
      "type": "function"
    },
    {
      "inputs": [
        {
          "internalType": "uint256",
          "name": "_maxBUSD",
          "type": "uint256"
        }
      ],
      "name": "setMaxBUSDBoughtPerWallet",
      "outputs": [],
      "stateMutability": "nonpayable",
      "type": "function"
    },
    {
      "inputs": [
        {
          "internalType": "uint256",
          "name": "_holdingTime",
          "type": "uint256"
        }
      ],
      "name": "setMaxHoldingTime",
      "outputs": [],
      "stateMutability": "nonpayable",
      "type": "function"
    },
    {
      "inputs": [
        {
          "internalType": "uint256",
          "name": "_maxRaisedBUSD",
          "type": "uint256"
        }
      ],
      "name": "setMaxRaisedBUSD",
      "outputs": [],
      "stateMutability": "nonpayable",
      "type": "function"
    },
    {
      "inputs": [
        {
          "internalType": "uint256",
          "name": "_minBUSD",
          "type": "uint256"
        }
      ],
      "name": "setMinBUSDBoughtPerWallet",
      "outputs": [],
      "stateMutability": "nonpayable",
      "type": "function"
    },
    {
      "inputs": [
        {
          "internalType": "uint256",
          "name": "_privateSalePrice",
          "type": "uint256"
        }
      ],
      "name": "setPrivateSalePrice",
      "outputs": [],
      "stateMutability": "nonpayable",
      "type": "function"
    },
    {
      "inputs": [
        {
          "internalType": "uint256",
          "name": "_referralBonusPercent",
          "type": "uint256"
        }
      ],
      "name": "setReferralBonusPercent",
      "outputs": [],
      "stateMutability": "nonpayable",
      "type": "function"
    },
    {
      "inputs": [
        {
          "internalType": "uint256",
          "name": "date",
          "type": "uint256"
        }
      ],
      "name": "setStartReleaseTime",
      "outputs": [],
      "stateMutability": "nonpayable",
      "type": "function"
    },
    {
      "inputs": [
        {
          "internalType": "contract IERC20",
          "name": "_token",
          "type": "address"
        }
      ],
      "name": "setToken",
      "outputs": [],
      "stateMutability": "nonpayable",
      "type": "function"
    },
    {
      "inputs": [],
      "name": "startReleaseTime",
      "outputs": [
        {
          "internalType": "uint256",
          "name": "",
          "type": "uint256"
        }
      ],
      "stateMutability": "view",
      "type": "function"
    },
    {
      "inputs": [],
      "name": "token",
      "outputs": [
        {
          "internalType": "contract IERC20",
          "name": "",
          "type": "address"
        }
      ],
      "stateMutability": "view",
      "type": "function"
    },
    {
      "inputs": [],
      "name": "totalRewardTracking",
      "outputs": [
        {
          "internalType": "uint256",
          "name": "",
          "type": "uint256"
        }
      ],
      "stateMutability": "view",
      "type": "function"
    },
    {
      "inputs": [
        {
          "internalType": "address",
          "name": "_recipient",
          "type": "address"
        },
        {
          "internalType": "uint256",
          "name": "_amount",
          "type": "uint256"
        }
      ],
      "name": "transferBUSD",
      "outputs": [
        {
          "internalType": "bool",
          "name": "",
          "type": "bool"
        }
      ],
      "stateMutability": "nonpayable",
      "type": "function"
    },
    {
      "inputs": [
        {
          "internalType": "address",
          "name": "newOwner",
          "type": "address"
        }
      ],
      "name": "transferOwnership",
      "outputs": [],
      "stateMutability": "nonpayable",
      "type": "function"
    },
    {
      "inputs": [
        {
          "internalType": "address",
          "name": "_recipient",
          "type": "address"
        },
        {
          "internalType": "uint256",
          "name": "_amount",
          "type": "uint256"
        }
      ],
      "name": "transferToken",
      "outputs": [
        {
          "internalType": "bool",
          "name": "",
          "type": "bool"
        }
      ],
      "stateMutability": "nonpayable",
      "type": "function"
    },
    {
      "inputs": [
        {
          "internalType": "uint256",
          "name": "",
          "type": "uint256"
        }
      ],
      "name": "users",
      "outputs": [
        {
          "internalType": "address",
          "name": "",
          "type": "address"
        }
      ],
      "stateMutability": "view",
      "type": "function"
    }
  ],
  "bytecode": "0x608060405234801561001057600080fd5b50611733806100206000396000f3fe608060405234801561001057600080fd5b506004361061025e5760003560e01c80638da5cb5b11610146578063c94f4c1d116100c3578063e0a2cd0811610087578063e0a2cd08146104e9578063e9715de9146104f2578063f0f8857c146104fb578063f2fde38b1461050e578063f560d41514610521578063fc0c546a1461052a57600080fd5b8063c94f4c1d146104ab578063cb22ba57146104b3578063cf5fc9c6146104c6578063d4c4b817146104ce578063df3e4d3c146104e157600080fd5b8063985053be1161010a578063985053be1461046b578063b88a802f14610474578063bbfa27951461047c578063c4d66de81461048f578063c90517e6146104a257600080fd5b80638da5cb5b146104225780639134709e1461043357806392929a09146104465780639308a7b7146104595780639481c9821461046257600080fd5b80634451d89f116101df578063630498e6116101a3578063630498e6146103cf5780636991d438146103e25780636fcf06f1146103f55780637018137b146103fe578063715018a6146104075780637bc36e041461040f57600080fd5b80634451d89f1461038d578063484f4ea9146103955780635e42b455146103a8578063601dc15e146103be57806360ccbb5d146103c657600080fd5b8063328d8f7211610226578063328d8f72146102d4578063365b98b2146102e757806337aff689146103125780633c0d79871461036757806341f345ef1461037a57600080fd5b806303582fc5146102635780631072cbea14610278578063144fa6d7146102a0578063238dafe0146102b35780632866ed21146102c7575b600080fd5b610276610271366004611524565b61053d565b005b61028b610286366004611552565b61054a565b60405190151581526020015b60405180910390f35b6102766102ae36600461157e565b6105e2565b60665461028b90600160a01b900460ff1681565b60695461028b9060ff1681565b6102766102e23660046115a9565b61060c565b6102fa6102f5366004611524565b610632565b6040516001600160a01b039091168152602001610297565b61034761032036600461157e565b606c6020526000908152604090208054600182015460028301546003909301549192909184565b604080519485526020850193909352918301526060820152608001610297565b610276610375366004611524565b61065c565b610276610388366004611524565b610669565b610276610676565b6066546102fa906001600160a01b031681565b6103b06108f1565b604051908152602001610297565b61028b61091a565b6103b060685481565b6102766103dd366004611524565b610957565b61028b6103f0366004611552565b610964565b6103b060735481565b6103b0606f5481565b6102766109a7565b61027661041d366004611524565b6109bb565b6033546001600160a01b03166102fa565b6102766104413660046115c6565b6109c8565b6102766104543660046115a9565b610df2565b6103b060725481565b6103b060705481565b6103b0606b5481565b610276610e0d565b61027661048a36600461157e565b610fe5565b61027661049d36600461157e565b61100f565b6103b060715481565b6103b06111d5565b6102766104c1366004611524565b611252565b6103b061125f565b6102766104dc366004611524565b611290565b61028b61130f565b6103b0606a5481565b6103b0606e5481565b610276610509366004611524565b611368565b61027661051c36600461157e565b611375565b6103b060675481565b6065546102fa906001600160a01b031681565b6105456113ee565b606e55565b60006105546113ee565b60655460405163a9059cbb60e01b81526001600160a01b038581166004830152602482018590529091169063a9059cbb906044015b602060405180830381600087803b1580156105a357600080fd5b505af11580156105b7573d6000803e3d6000fd5b505050506040513d601f19601f820116820180604052508101906105db91906115f6565b9392505050565b6105ea6113ee565b606580546001600160a01b0319166001600160a01b0392909216919091179055565b6106146113ee565b60668054911515600160a01b0260ff60a01b19909216919091179055565b606d818154811061064257600080fd5b6000918252602090912001546001600160a01b0316905081565b6106646113ee565b607255565b6106716113ee565b606855565b60695460ff166106cd5760405162461bcd60e51b815260206004820152601c60248201527f5072697661746553616c65206973206e6f7420636c61696d61626c650000000060448201526064015b60405180910390fd5b6071544290811015806106fc57506073546072546106eb9190611629565b81101580156106fc57506073548110155b61073e5760405162461bcd60e51b815260206004820152601360248201527252656c65617365206e6f74207965742064756560681b60448201526064016106c4565b6065546001600160a01b031661078c5760405162461bcd60e51b8152602060048201526013602482015272546f6b656e20646f206e6f742075706461746560681b60448201526064016106c4565b607054336000908152606c602052604081205490916107ba91620186a0916107b49190611448565b90611454565b90506073546072546107cc9190611629565b82106107e45750336000908152606c60205260409020545b336000908152606c6020526040812060010154610802908390611460565b336000908152606c6020526040812060010184905590915061082c82670de0b6b3a7640000611448565b60655460405163a9059cbb60e01b8152336004820152602481018390529192506001600160a01b03169063a9059cbb90604401602060405180830381600087803b15801561087957600080fd5b505af115801561088d573d6000803e3d6000fd5b505050506040513d601f19601f820116820180604052508101906108b191906115f6565b5060408051338152602081018490527f88a5966d370b9919b20f3e2c13ff65706f196a4e32cc2c12bf57088f88525874910160405180910390a150505050565b336000908152606c6020526040812060038101546002909101546109159190611641565b905090565b336000908152606c602052604081206003810154600290910154829161093f91611641565b9050801561094f57600191505090565b600091505090565b61095f6113ee565b606b55565b600061096e6113ee565b60665460405163a9059cbb60e01b81526001600160a01b038581166004830152602482018590529091169063a9059cbb90604401610589565b6109af6113ee565b6109b9600061146c565b565b6109c36113ee565b606755565b606654600160a01b900460ff16610a215760405162461bcd60e51b815260206004820152601760248201527f5072697661746553616c652069732064697361626c656400000000000000000060448201526064016106c4565b607354421015610a735760405162461bcd60e51b815260206004820152601e60248201527f5072697661746553616c6520646f6573206e6f74206f70656e2073616c65000060448201526064016106c4565b6000610a8a6067548461144890919063ffffffff16565b9050606a54811015610af25760405162461bcd60e51b815260206004820152602b60248201527f596f752063616e206e6f7420627579206c657373207468616e20746865204d6960448201526a1b881d1a1c995cda1bdb1960aa1b60648201526084016106c4565b606b54811115610b585760405162461bcd60e51b815260206004820152602b60248201527f596f752063616e206e6f7420627579206d6f7265207468616e20746865204d6160448201526a1e081d1a1c995cda1bdb1960aa1b60648201526084016106c4565b6068546066546040516370a0823160e01b8152306004820152610be29184916001600160a01b03909116906370a082319060240160206040518083038186803b158015610ba457600080fd5b505afa158015610bb8573d6000803e3d6000fd5b505050506040513d601f19601f82011682018060405250810190610bdc9190611658565b906114be565b1115610c305760405162461bcd60e51b815260206004820152601f60248201527f4d617820726169736564204255534420616d6f756e742065786365656465640060448201526064016106c4565b6066546040516323b872dd60e01b8152336004820152306024820152604481018390526001600160a01b03909116906323b872dd90606401602060405180830381600087803b158015610c8257600080fd5b505af1158015610c96573d6000803e3d6000fd5b505050506040513d601f19601f82011682018060405250810190610cba91906115f6565b610d065760405162461bcd60e51b815260206004820152601860248201527f4661696c757265204f6e2042555344205472616e73666572000000000000000060448201526064016106c4565b336000908152606c6020526040902054610d2090846114be565b336000908152606c60205260409020556001600160a01b03821615610db4576000610d5d620186a06107b4606e548561144890919063ffffffff16565b6001600160a01b0384166000908152606c6020526040902060020154909150610d8690826114be565b6001600160a01b0384166000908152606c6020526040902060020155606f54610daf90826114be565b606f55505b60408051338152602081018590527fc55650ccda1011e1cdc769b1fbf546ebb8c97800b6072b49e06cd560305b1d67910160405180910390a1505050565b610dfa6113ee565b6069805460ff1916911515919091179055565b336000908152606c602052604081206003810154600290910154610e319190611641565b336000908152606c602052604090206002810154600390910155905080610e865760405162461bcd60e51b8152602060048201526009602482015268139bc81c995dd85c9960ba1b60448201526064016106c4565b336000908152606c602052604090205480610f015760405162461bcd60e51b815260206004820152603560248201527f596f75206e65656420746f2062757920707269766174652073616c6520746f2060448201527418994818589b19481d1bc819d95d081c995dd85c99605a1b60648201526084016106c4565b60665460405163a9059cbb60e01b8152336004820152602481018490526001600160a01b039091169063a9059cbb90604401602060405180830381600087803b158015610f4d57600080fd5b505af1158015610f61573d6000803e3d6000fd5b505050506040513d601f19601f82011682018060405250810190610f8591906115f6565b610fd15760405162461bcd60e51b815260206004820152601b60248201527f5472616e73666572206275736420746f207265666572206661696c000000000060448201526064016106c4565b606f54610fde9083611460565b606f555050565b610fed6113ee565b606680546001600160a01b0319166001600160a01b0392909216919091179055565b600054610100900460ff161580801561102f5750600054600160ff909116105b806110495750303b158015611049575060005460ff166001145b6110ac5760405162461bcd60e51b815260206004820152602e60248201527f496e697469616c697a61626c653a20636f6e747261637420697320616c72656160448201526d191e481a5b9a5d1a585b1a5e995960921b60648201526084016106c4565b6000805460ff1916600117905580156110cf576000805461ff0019166101001790555b606580546001600160a01b0319166001600160a01b0384161790556066805460ff60a01b1916905566016bcc41e900006067556069805460ff1916905569152d02c7e14af680000060685568056bc75e2d63100000606a5569021e19e0c9bab2400000606b55612710606e556301e1338060728190554260738190556111559190611629565b6071556000607055606680546001600160a01b03191673ed24fc36d5ee211ea25a80239fb8c4cfd80f12ee17905561118b6114ca565b80156111d1576000805461ff0019169055604051600181527f7f26b83ff96e1f2b6a682f133852f6798a09c465da95921460cefb38474024989060200160405180910390a15b5050565b6065546040516370a0823160e01b81523060048201526000916001600160a01b0316906370a08231906024015b60206040518083038186803b15801561121a57600080fd5b505afa15801561122e573d6000803e3d6000fd5b505050506040513d601f19601f820116820180604052508101906109159190611658565b61125a6113ee565b606a55565b6066546040516370a0823160e01b81523060048201526000916001600160a01b0316906370a0823190602401611202565b6112986113ee565b42607155607054620186a0906112ae90836114be565b11156112fc5760405162461bcd60e51b815260206004820152601c60248201527f546f74616c2070657263656e74207468616e206d6f726520313030250000000060448201526064016106c4565b60705461130990826114be565b60705550565b607054336000908152606c60205260408120549091829161133891620186a0916107b491611448565b336000908152606c60205260409020600101549091508082141561135f5760009250505090565b60019250505090565b6113706113ee565b607355565b61137d6113ee565b6001600160a01b0381166113e25760405162461bcd60e51b815260206004820152602660248201527f4f776e61626c653a206e6577206f776e657220697320746865207a65726f206160448201526564647265737360d01b60648201526084016106c4565b6113eb8161146c565b50565b6033546001600160a01b031633146109b95760405162461bcd60e51b815260206004820181905260248201527f4f776e61626c653a2063616c6c6572206973206e6f7420746865206f776e657260448201526064016106c4565b60006105db8284611671565b60006105db8284611690565b60006105db8284611641565b603380546001600160a01b038381166001600160a01b0319831681179093556040519116919082907f8be0079c531659141344cd1fd0a4f28419497f9722a3daafe3b4186f6b6457e090600090a35050565b60006105db8284611629565b600054610100900460ff166114f15760405162461bcd60e51b81526004016106c4906116b2565b6109b9600054610100900460ff1661151b5760405162461bcd60e51b81526004016106c4906116b2565b6109b93361146c565b60006020828403121561153657600080fd5b5035919050565b6001600160a01b03811681146113eb57600080fd5b6000806040838503121561156557600080fd5b82356115708161153d565b946020939093013593505050565b60006020828403121561159057600080fd5b81356105db8161153d565b80151581146113eb57600080fd5b6000602082840312156115bb57600080fd5b81356105db8161159b565b600080604083850312156115d957600080fd5b8235915060208301356115eb8161153d565b809150509250929050565b60006020828403121561160857600080fd5b81516105db8161159b565b634e487b7160e01b600052601160045260246000fd5b6000821982111561163c5761163c611613565b500190565b60008282101561165357611653611613565b500390565b60006020828403121561166a57600080fd5b5051919050565b600081600019048311821515161561168b5761168b611613565b500290565b6000826116ad57634e487b7160e01b600052601260045260246000fd5b500490565b6020808252602b908201527f496e697469616c697a61626c653a20636f6e7472616374206973206e6f74206960408201526a6e697469616c697a696e6760a81b60608201526080019056fea26469706673582212200da0c0feb7b6ab55b4f44e51b953cdb2614bf10f01b997f2887dd6e77080aa8464736f6c63430008090033",
  "linkReferences": {},
  "deployedLinkReferences": {}
}