{
  "_format": "hh-sol-artifact-1",
  "contractName": "PrivateSale",
  "sourceName": "contracts/PrivateSale.sol",
  "abi": [
    {
      "anonymous": false,
      "inputs": [
        {
          "indexed": false,
          "internalType": "address",
          "name": "buyer",
          "type": "address"
        },
        {
          "indexed": false,
          "internalType": "uint256",
          "name": "tokenAmount",
          "type": "uint256"
        }
      ],
      "name": "Bought",
      "type": "event"
    },
    {
      "anonymous": false,
      "inputs": [
        {
          "indexed": false,
          "internalType": "uint8",
          "name": "version",
          "type": "uint8"
        }
      ],
      "name": "Initialized",
      "type": "event"
    },
    {
      "anonymous": false,
      "inputs": [
        {
          "indexed": true,
          "internalType": "address",
          "name": "previousOwner",
          "type": "address"
        },
        {
          "indexed": true,
          "internalType": "address",
          "name": "newOwner",
          "type": "address"
        }
      ],
      "name": "OwnershipTransferred",
      "type": "event"
    },
    {
      "anonymous": false,
      "inputs": [
        {
          "indexed": false,
          "internalType": "address",
          "name": "",
          "type": "address"
        },
        {
          "indexed": false,
          "internalType": "uint256",
          "name": "",
          "type": "uint256"
        }
      ],
      "name": "Received",
      "type": "event"
    },
    {
      "inputs": [],
      "name": "BUSD",
      "outputs": [
        {
          "internalType": "contract IERC20",
          "name": "",
          "type": "address"
        }
      ],
      "stateMutability": "view",
      "type": "function"
    },
    {
      "inputs": [
        {
          "internalType": "address",
          "name": "",
          "type": "address"
        }
      ],
      "name": "addressToUserData",
      "outputs": [
        {
          "internalType": "uint256",
          "name": "totalTokenAmount",
          "type": "uint256"
        },
        {
          "internalType": "uint256",
          "name": "tokenAmountReceived",
          "type": "uint256"
        },
        {
          "internalType": "uint256",
          "name": "referralRewardAmount",
          "type": "uint256"
        }
      ],
      "stateMutability": "view",
      "type": "function"
    },
    {
      "inputs": [
        {
          "internalType": "uint256",
          "name": "amount",
          "type": "uint256"
        },
        {
          "internalType": "address",
          "name": "referAddress",
          "type": "address"
        }
      ],
      "name": "buyToken",
      "outputs": [],
      "stateMutability": "nonpayable",
      "type": "function"
    },
    {
      "inputs": [],
      "name": "claimEnabled",
      "outputs": [
        {
          "internalType": "bool",
          "name": "",
          "type": "bool"
        }
      ],
      "stateMutability": "view",
      "type": "function"
    },
    {
      "inputs": [],
      "name": "claimReward",
      "outputs": [],
      "stateMutability": "nonpayable",
      "type": "function"
    },
    {
      "inputs": [],
      "name": "claimToken",
      "outputs": [],
      "stateMutability": "nonpayable",
      "type": "function"
    },
    {
      "inputs": [],
      "name": "enabled",
      "outputs": [
        {
          "internalType": "bool",
          "name": "",
          "type": "bool"
        }
      ],
      "stateMutability": "view",
      "type": "function"
    },
    {
      "inputs": [],
      "name": "getBUSDBalance",
      "outputs": [
        {
          "internalType": "uint256",
          "name": "",
          "type": "uint256"
        }
      ],
      "stateMutability": "view",
      "type": "function"
    },
    {
      "inputs": [],
      "name": "getRewardBalance",
      "outputs": [
        {
          "internalType": "uint256",
          "name": "",
          "type": "uint256"
        }
      ],
      "stateMutability": "view",
      "type": "function"
    },
    {
      "inputs": [],
      "name": "getTokenBalance",
      "outputs": [
        {
          "internalType": "uint256",
          "name": "",
          "type": "uint256"
        }
      ],
      "stateMutability": "view",
      "type": "function"
    },
    {
      "inputs": [
        {
          "internalType": "contract IERC20",
          "name": "_token",
          "type": "address"
        }
      ],
      "name": "initialize",
      "outputs": [],
      "stateMutability": "nonpayable",
      "type": "function"
    },
    {
      "inputs": [],
      "name": "instantRelease",
      "outputs": [
        {
          "internalType": "uint256",
          "name": "",
          "type": "uint256"
        }
      ],
      "stateMutability": "view",
      "type": "function"
    },
    {
      "inputs": [],
      "name": "maxHoldingTime",
      "outputs": [
        {
          "internalType": "uint256",
          "name": "",
          "type": "uint256"
        }
      ],
      "stateMutability": "view",
      "type": "function"
    },
    {
      "inputs": [],
      "name": "maxRaisedBUSD",
      "outputs": [
        {
          "internalType": "uint256",
          "name": "",
          "type": "uint256"
        }
      ],
      "stateMutability": "view",
      "type": "function"
    },
    {
      "inputs": [],
      "name": "minBUSDBoughtPerWallet",
      "outputs": [
        {
          "internalType": "uint256",
          "name": "",
          "type": "uint256"
        }
      ],
      "stateMutability": "view",
      "type": "function"
    },
    {
      "inputs": [],
      "name": "owner",
      "outputs": [
        {
          "internalType": "address",
          "name": "",
          "type": "address"
        }
      ],
      "stateMutability": "view",
      "type": "function"
    },
    {
      "inputs": [],
      "name": "privateSalePrice",
      "outputs": [
        {
          "internalType": "uint256",
          "name": "",
          "type": "uint256"
        }
      ],
      "stateMutability": "view",
      "type": "function"
    },
    {
      "inputs": [],
      "name": "referralBonusPercent",
      "outputs": [
        {
          "internalType": "uint256",
          "name": "",
          "type": "uint256"
        }
      ],
      "stateMutability": "view",
      "type": "function"
    },
    {
      "inputs": [],
      "name": "releaseTokenTotalPercent",
      "outputs": [
        {
          "internalType": "uint256",
          "name": "",
          "type": "uint256"
        }
      ],
      "stateMutability": "view",
      "type": "function"
    },
    {
      "inputs": [],
      "name": "renounceOwnership",
      "outputs": [],
      "stateMutability": "nonpayable",
      "type": "function"
    },
    {
      "inputs": [
        {
          "internalType": "contract IERC20",
          "name": "_busd",
          "type": "address"
        }
      ],
      "name": "setBUSDAddress",
      "outputs": [],
      "stateMutability": "nonpayable",
      "type": "function"
    },
    {
      "inputs": [
        {
          "internalType": "bool",
          "name": "_claimEnabled",
          "type": "bool"
        }
      ],
      "name": "setClaimEnabled",
      "outputs": [],
      "stateMutability": "nonpayable",
      "type": "function"
    },
    {
      "inputs": [
        {
          "internalType": "bool",
          "name": "_enabled",
          "type": "bool"
        }
      ],
      "name": "setEnabled",
      "outputs": [],
      "stateMutability": "nonpayable",
      "type": "function"
    },
    {
      "inputs": [
        {
          "internalType": "uint256",
          "name": "_miniPercent",
          "type": "uint256"
        }
      ],
      "name": "setInstantReleaseWithPercent",
      "outputs": [],
      "stateMutability": "nonpayable",
      "type": "function"
    },
    {
      "inputs": [
        {
          "internalType": "uint256",
          "name": "_holdingTime",
          "type": "uint256"
        }
      ],
      "name": "setMaxHoldingTime",
      "outputs": [],
      "stateMutability": "nonpayable",
      "type": "function"
    },
    {
      "inputs": [
        {
          "internalType": "uint256",
          "name": "_maxRaisedBUSD",
          "type": "uint256"
        }
      ],
      "name": "setMaxRaisedBUSD",
      "outputs": [],
      "stateMutability": "nonpayable",
      "type": "function"
    },
    {
      "inputs": [
        {
          "internalType": "uint256",
          "name": "_minBUSD",
          "type": "uint256"
        }
      ],
      "name": "setMinBUSDBoughtPerWallet",
      "outputs": [],
      "stateMutability": "nonpayable",
      "type": "function"
    },
    {
      "inputs": [
        {
          "internalType": "uint256",
          "name": "_privateSalePrice",
          "type": "uint256"
        }
      ],
      "name": "setPrivateSalePrice",
      "outputs": [],
      "stateMutability": "nonpayable",
      "type": "function"
    },
    {
      "inputs": [
        {
          "internalType": "uint256",
          "name": "_referralBonusPercent",
          "type": "uint256"
        }
      ],
      "name": "setReferralBonusPercent",
      "outputs": [],
      "stateMutability": "nonpayable",
      "type": "function"
    },
    {
      "inputs": [
        {
          "internalType": "contract IERC20",
          "name": "_token",
          "type": "address"
        }
      ],
      "name": "setToken",
      "outputs": [],
      "stateMutability": "nonpayable",
      "type": "function"
    },
    {
      "inputs": [],
      "name": "startReleaseTime",
      "outputs": [
        {
          "internalType": "uint256",
          "name": "",
          "type": "uint256"
        }
      ],
      "stateMutability": "view",
      "type": "function"
    },
    {
      "inputs": [],
      "name": "token",
      "outputs": [
        {
          "internalType": "contract IERC20",
          "name": "",
          "type": "address"
        }
      ],
      "stateMutability": "view",
      "type": "function"
    },
    {
      "inputs": [],
      "name": "totalRewardTracking",
      "outputs": [
        {
          "internalType": "uint256",
          "name": "",
          "type": "uint256"
        }
      ],
      "stateMutability": "view",
      "type": "function"
    },
    {
      "inputs": [
        {
          "internalType": "address",
          "name": "_recipient",
          "type": "address"
        },
        {
          "internalType": "uint256",
          "name": "_amount",
          "type": "uint256"
        }
      ],
      "name": "transferBUSD",
      "outputs": [
        {
          "internalType": "bool",
          "name": "",
          "type": "bool"
        }
      ],
      "stateMutability": "nonpayable",
      "type": "function"
    },
    {
      "inputs": [
        {
          "internalType": "address",
          "name": "newOwner",
          "type": "address"
        }
      ],
      "name": "transferOwnership",
      "outputs": [],
      "stateMutability": "nonpayable",
      "type": "function"
    },
    {
      "inputs": [
        {
          "internalType": "address",
          "name": "_recipient",
          "type": "address"
        },
        {
          "internalType": "uint256",
          "name": "_amount",
          "type": "uint256"
        }
      ],
      "name": "transferToken",
      "outputs": [
        {
          "internalType": "bool",
          "name": "",
          "type": "bool"
        }
      ],
      "stateMutability": "nonpayable",
      "type": "function"
    },
    {
      "inputs": [
        {
          "internalType": "uint256",
          "name": "",
          "type": "uint256"
        }
      ],
      "name": "users",
      "outputs": [
        {
          "internalType": "address",
          "name": "",
          "type": "address"
        }
      ],
      "stateMutability": "view",
      "type": "function"
    }
  ],
  "bytecode": "0x608060405234801561001057600080fd5b50611458806100206000396000f3fe608060405234801561001057600080fd5b50600436106102275760003560e01c8063715018a611610130578063bbfa2795116100b8578063e0a2cd081161007c578063e0a2cd0814610485578063e9715de91461048e578063f2fde38b14610497578063f560d415146104aa578063fc0c546a146104b357600080fd5b8063bbfa279514610430578063c4d66de814610443578063c90517e614610456578063cb22ba571461045f578063d4c4b8171461047257600080fd5b80639134709e116100ff5780639134709e146103f057806392929a09146104035780639308a7b7146104165780639481c9821461041f578063b88a802f1461042857600080fd5b8063715018a6146103bc5780637bc36e04146103c457806382b2e257146103d75780638da5cb5b146103df57600080fd5b80633c0d7987116101b35780635e42b455116101825780635e42b4551461037657806360ccbb5d1461038e5780636991d438146103975780636fcf06f1146103aa5780637018137b146103b357600080fd5b80633c0d79871461033557806341f345ef146103485780634451d89f1461035b578063484f4ea91461036357600080fd5b80632866ed21116101fa5780632866ed2114610290578063328d8f721461029d57806333ab52f5146102b0578063365b98b2146102c057806337aff689146102eb57600080fd5b806303582fc51461022c5780631072cbea14610241578063144fa6d714610269578063238dafe01461027c575b600080fd5b61023f61023a366004611249565b6104c6565b005b61025461024f366004611277565b6104d3565b60405190151581526020015b60405180910390f35b61023f6102773660046112a3565b61056b565b60665461025490600160a01b900460ff1681565b6069546102549060ff1681565b61023f6102ab3660046112ce565b610595565b475b604051908152602001610260565b6102d36102ce366004611249565b6105bb565b6040516001600160a01b039091168152602001610260565b61031a6102f93660046112a3565b606b6020526000908152604090208054600182015460029092015490919083565b60408051938452602084019290925290820152606001610260565b61023f610343366004611249565b6105e5565b61023f610356366004611249565b6105f2565b61023f6105ff565b6066546102d3906001600160a01b031681565b336000908152606b60205260409020600201546102b2565b6102b260685481565b6102546103a5366004611277565b61082d565b6102b260725481565b6102b2606e5481565b61023f610870565b61023f6103d2366004611249565b610884565b6102b2610891565b6033546001600160a01b03166102d3565b61023f6103fe3660046112eb565b610912565b61023f6104113660046112ce565b610c80565b6102b260715481565b6102b2606f5481565b61023f610c9b565b61023f61043e3660046112a3565b610e2c565b61023f6104513660046112a3565b610e56565b6102b260705481565b61023f61046d366004611249565b61100e565b61023f610480366004611249565b61101b565b6102b2606a5481565b6102b2606d5481565b61023f6104a53660046112a3565b61109a565b6102b260675481565b6065546102d3906001600160a01b031681565b6104ce611113565b606d55565b60006104dd611113565b60655460405163a9059cbb60e01b81526001600160a01b038581166004830152602482018590529091169063a9059cbb906044015b602060405180830381600087803b15801561052c57600080fd5b505af1158015610540573d6000803e3d6000fd5b505050506040513d601f19601f82011682018060405250810190610564919061131b565b9392505050565b610573611113565b606580546001600160a01b0319166001600160a01b0392909216919091179055565b61059d611113565b60668054911515600160a01b0260ff60a01b19909216919091179055565b606c81815481106105cb57600080fd5b6000918252602090912001546001600160a01b0316905081565b6105ed611113565b607155565b6105fa611113565b606855565b60695460ff166106565760405162461bcd60e51b815260206004820152601c60248201527f5072697661746553616c65206973206e6f7420636c61696d61626c650000000060448201526064015b60405180910390fd5b60705442908110156106a05760405162461bcd60e51b815260206004820152601360248201527252656c65617365206e6f74207965742064756560681b604482015260640161064d565b6065546001600160a01b03166106ee5760405162461bcd60e51b8152602060048201526013602482015272546f6b656e20646f206e6f742075706461746560681b604482015260640161064d565b606f54336000908152606b6020526040812054909161071c91620186a091610716919061116d565b90611179565b336000908152606b60205260408120600101549192509061073e908390611185565b336000908152606b6020526040812060010184905590915061076882670de0b6b3a764000061116d565b60655460405163a9059cbb60e01b8152336004820152602481018390529192506001600160a01b03169063a9059cbb90604401602060405180830381600087803b1580156107b557600080fd5b505af11580156107c9573d6000803e3d6000fd5b505050506040513d601f19601f820116820180604052508101906107ed919061131b565b5060408051338152602081018490527f88a5966d370b9919b20f3e2c13ff65706f196a4e32cc2c12bf57088f88525874910160405180910390a150505050565b6000610837611113565b60665460405163a9059cbb60e01b81526001600160a01b038581166004830152602482018590529091169063a9059cbb90604401610512565b610878611113565b6108826000611191565b565b61088c611113565b606755565b6065546040516370a0823160e01b81523060048201526000916001600160a01b0316906370a082319060240160206040518083038186803b1580156108d557600080fd5b505afa1580156108e9573d6000803e3d6000fd5b505050506040513d601f19601f8201168201806040525081019061090d9190611338565b905090565b606654600160a01b900460ff1661096b5760405162461bcd60e51b815260206004820152601760248201527f5072697661746553616c652069732064697361626c6564000000000000000000604482015260640161064d565b60006109826067548461116d90919063ffffffff16565b9050606a548110156109e65760405162461bcd60e51b815260206004820152602760248201527f4255534420627579206973206c657373207468616e20746865204d696e2074686044820152661c995cda1bdb1960ca1b606482015260840161064d565b6068546066546040516370a0823160e01b8152306004820152610a709184916001600160a01b03909116906370a082319060240160206040518083038186803b158015610a3257600080fd5b505afa158015610a46573d6000803e3d6000fd5b505050506040513d601f19601f82011682018060405250810190610a6a9190611338565b906111e3565b1115610abe5760405162461bcd60e51b815260206004820152601f60248201527f4d617820726169736564204255534420616d6f756e7420657863656564656400604482015260640161064d565b6066546040516323b872dd60e01b8152336004820152306024820152604481018390526001600160a01b03909116906323b872dd90606401602060405180830381600087803b158015610b1057600080fd5b505af1158015610b24573d6000803e3d6000fd5b505050506040513d601f19601f82011682018060405250810190610b48919061131b565b610b945760405162461bcd60e51b815260206004820152601860248201527f4661696c757265204f6e2042555344205472616e736665720000000000000000604482015260640161064d565b336000908152606b6020526040902054610bae90846111e3565b336000908152606b60205260409020556001600160a01b03821615610c42576000610beb620186a0610716606d548561116d90919063ffffffff16565b6001600160a01b0384166000908152606b6020526040902060020154909150610c1490826111e3565b6001600160a01b0384166000908152606b6020526040902060020155606e54610c3d90826111e3565b606e55505b60408051338152602081018590527fc55650ccda1011e1cdc769b1fbf546ebb8c97800b6072b49e06cd560305b1d67910160405180910390a1505050565b610c88611113565b6069805460ff1916911515919091179055565b336000908152606b60205260408120600201805491905580610ceb5760405162461bcd60e51b8152602060048201526009602482015268139bc81c995dd85c9960ba1b604482015260640161064d565b336000908152606b602052604090205480610d485760405162461bcd60e51b815260206004820152601960248201527f486176656e277420626f7567687420746f6b656e732079657400000000000000604482015260640161064d565b60665460405163a9059cbb60e01b8152336004820152602481018490526001600160a01b039091169063a9059cbb90604401602060405180830381600087803b158015610d9457600080fd5b505af1158015610da8573d6000803e3d6000fd5b505050506040513d601f19601f82011682018060405250810190610dcc919061131b565b610e185760405162461bcd60e51b815260206004820152601b60248201527f5472616e73666572206275736420746f207265666572206661696c0000000000604482015260640161064d565b606e54610e259083611185565b606e555050565b610e34611113565b606680546001600160a01b0319166001600160a01b0392909216919091179055565b600054610100900460ff1615808015610e765750600054600160ff909116105b80610e905750303b158015610e90575060005460ff166001145b610ef35760405162461bcd60e51b815260206004820152602e60248201527f496e697469616c697a61626c653a20636f6e747261637420697320616c72656160448201526d191e481a5b9a5d1a585b1a5e995960921b606482015260840161064d565b6000805460ff191660011790558015610f16576000805461ff0019166101001790555b606580546001600160a01b0319166001600160a01b0384161790556066805460ff60a01b1916905566016bcc41e900006067556069805460ff1916905569152d02c7e14af680000060685568056bc75e2d63100000606a55612710606d556301e133806071819055426072819055610f8e9190611367565b6070556000606f55606680546001600160a01b03191673ed24fc36d5ee211ea25a80239fb8c4cfd80f12ee179055610fc46111ef565b801561100a576000805461ff0019169055604051600181527f7f26b83ff96e1f2b6a682f133852f6798a09c465da95921460cefb38474024989060200160405180910390a15b5050565b611016611113565b606a55565b611023611113565b42607055606f54620186a09061103990836111e3565b11156110875760405162461bcd60e51b815260206004820152601c60248201527f546f74616c2070657263656e74207468616e206d6f7265203130302500000000604482015260640161064d565b606f5461109490826111e3565b606f5550565b6110a2611113565b6001600160a01b0381166111075760405162461bcd60e51b815260206004820152602660248201527f4f776e61626c653a206e6577206f776e657220697320746865207a65726f206160448201526564647265737360d01b606482015260840161064d565b61111081611191565b50565b6033546001600160a01b031633146108825760405162461bcd60e51b815260206004820181905260248201527f4f776e61626c653a2063616c6c6572206973206e6f7420746865206f776e6572604482015260640161064d565b6000610564828461137f565b6000610564828461139e565b600061056482846113c0565b603380546001600160a01b038381166001600160a01b0319831681179093556040519116919082907f8be0079c531659141344cd1fd0a4f28419497f9722a3daafe3b4186f6b6457e090600090a35050565b60006105648284611367565b600054610100900460ff166112165760405162461bcd60e51b815260040161064d906113d7565b610882600054610100900460ff166112405760405162461bcd60e51b815260040161064d906113d7565b61088233611191565b60006020828403121561125b57600080fd5b5035919050565b6001600160a01b038116811461111057600080fd5b6000806040838503121561128a57600080fd5b823561129581611262565b946020939093013593505050565b6000602082840312156112b557600080fd5b813561056481611262565b801515811461111057600080fd5b6000602082840312156112e057600080fd5b8135610564816112c0565b600080604083850312156112fe57600080fd5b82359150602083013561131081611262565b809150509250929050565b60006020828403121561132d57600080fd5b8151610564816112c0565b60006020828403121561134a57600080fd5b5051919050565b634e487b7160e01b600052601160045260246000fd5b6000821982111561137a5761137a611351565b500190565b600081600019048311821515161561139957611399611351565b500290565b6000826113bb57634e487b7160e01b600052601260045260246000fd5b500490565b6000828210156113d2576113d2611351565b500390565b6020808252602b908201527f496e697469616c697a61626c653a20636f6e7472616374206973206e6f74206960408201526a6e697469616c697a696e6760a81b60608201526080019056fea2646970667358221220f066f8a8515a8446d1bca91e3f5a46a44125f91701eff08ef61991838ee9611464736f6c63430008090033",
  "linkReferences": {},
  "deployedLinkReferences": {}
}